:0400000085EF02F096
:1000080000C015F0F2A40CD0F2AA0AD0010E1B6EA3
:100018001C2A190E1C5C03E3010E1A6E1C6AF2946A
:0600280015C000F01100FC
:0C002E00020E0D6E0D2EFED70000120019
:10003A003A0E0C6E230E0D6E0D2EFED70C2EFCD72B
:02004A001200A2
:10004C000B6A0A6A096A00500402F4CF09F0F3CF74
:10005C0008F001500502F4CF0BF0F3CF0AF000507A
:10006C000502F3500926F4500A22E86A0B220150CB
:10007C000402F3500926F4500A22E86A0B2208C045
:10008C0000F009C001F00AC002F00BC003F012002E
:10009C00FF0E0001B66FFF0EB76FFF0EB86FFF0EAD
:1000AC00B96FFF0EBA6FFF0EBB6F000EBC6F000E68
:1000BC00BD6FFF0EB26FFF0EB36F000EB46F000E6C
:1000CC00B56FFF0EAE6FFF0EAF6F000EB06F000E70
:1000DC00B16FAC8A900EAB6E948E949C9EAA03D09A
:0800EC00AECF00F0FBD71200BB
:1000F400FF0E0001B66FFF0EB76FFF0EB86FFF0E55
:10010400B96FFF0EBA6FFF0EBB6F000EBC6F000E0F
:10011400BD6FFF0EB26FFF0EB36F000EB46F000E13
:10012400B56FFF0EAE6FFF0EAF6F000EB06F000E17
:10013400B16FBA8A900EA66E958E959CA4AA03D030
:080144007ACF00F0FBD7120096
:10014C000001C56B0A0EC55D62E2C3C0C6F0C4C037
:10015C00C7F0C5C000F0000E016E070E046E000E55
:10016C00056E6EDF0050C625E16E0150C721E26EB0
:10017C00E66AC3C0C6F0C4C0C7F0C5C000F0000E2C
:10018C00016E070E046E000E056E5ADFC651002676
:10019C00C7510122010E0024E16E000E0120E26E17
:1001AC00E66AE66AE66AE66AC3C0C6F0C4C0C7F08F
:1001BC00C5C000F0000E016E070E046E000E056E39
:1001CC003FDFC6510026C7510122050E0024E16E07
:1001DC00000E0120E26E010EE66EC3C0C6F0C4C074
:1001EC00C7F0C5C000F0000E016E070E046E000EC5
:1001FC00056E26DFC6510026C7510122060E0024CB
:10020C00E16E000E0120E26EE66AC52B9BD7460E0E
:10021C00C325E16E000EC421E26EE66AE66AE66A68
:04022C00E66A12006C
:100230009398939A93909392939493968198819A9A
:100240008196819481928190F8DEF7DEF6DE8182DC
:1002500081808188ECDE8198F0DE8188E8DE8198FB
:10026000ECDE8188E4DE8198E8DE81908188DFDE43
:100270008198E3DE8188DBDE8198819281868188A6
:10028000D6DE8198DADE819681808188D0DE819801
:1002900081908188CCDE8198D0DE8188C8DE81980B
:1002A00081808188C4DE8198C8DE81908188BFDE2C
:1002B000819881868184818281808188B8DE81985D
:0602C000BCDE1D801200EF
:1002C600600ED36E9B8C0F015D6B5C6B010E806EB6
:1002D600816A826A836A846ABE0E926EC00E936ECB
:1002E600A10E946EB00E956E0E0E966E810ED56EA4
:1002F600630ED76EBF0ED66EF28EF28A96DF050EAD
:100306000B6E0F0E0C6EF10E0D6E0D2EFED70C2E13
:10031600FCD70B2EFAD78480CF0EAF6EAC84BBDE33
:10032600CF0E7B6EBA84E3DE1E0E0001C36F000E95
:06033600C46F09DF120094
:10033C000900F5CFE6FF0006FBE10106F9E112002A
:10034C00460E0001BE25E96E000EBF21EA6EEECF0F
:10035C0001F0EECF02F0EECF03F0EECF04F004503C
:10036C00FF0A08E10350FF0A05E10250FF0A02E10F
:10037C000150FF0A24E00001460EBE25046E000E5B
:10038C00BF21056E04C0E9FF05C0EAFF010EEE2493
:10039C00006E000EEE20016E000EEE20026E000EBE
:1003AC00EE20036E04C0E1FF05C0E2FF00C0E6FFD3
:1003BC0001C0E6FF02C0E6FF03C0E6FF0BD0000160
:1003CC00460EBE25E16E000EBF21E26EE66AE66ABD
:0603DC00E66AE66A120069
:1003E2000001C06BC06B0A0EC05DD8B08CD0BEC01D
:1003F200C1F0BFC0C2F0C0C000F0000E016E070E17
:10040200046E000E056E21DEC1510026C25101228A
:10041200050E0024E96E000E0120EA6EEE50000A7D
:1004220070E1BEC0C1F0BFC0C2F0C0C000F0000E9B
:10043200016E070E046E000E056E07DEC151002626
:10044200C2510122010E0024E96E000E0120EA6E63
:10045200EECF05F0EECF06F0EECF07F0EECF08F0CC
:10046200460EBE25D96E000EBF21DA6ED9CFE9FF46
:10047200DACFEAFFEECF01F0EECF02F0EECF03F0DB
:10048200EECF04F00850041808E10750031805E104
:100492000650021802E10550011833E1BEC0C1F056
:1004A200BFC0C2F0C0C000F0000E016E070E046EA5
:1004B200000E056ECADDC1510026C2510122060E90
:1004C2000024E96E000E0120EA6EEE50000A19E1E6
:1004D200BEC0C1F0BFC0C2F0C0C000F0000E016ECD
:1004E200070E046E000E056EB0DDC1510026C2512A
:1004F2000122060E0024E16E000E0120E26E010EC2
:08050200E66EC02B70D7120059
:10050A00166A176A186A196A1A6A1B6A1C6AD6DE98
:10051A001B5201E01B6A1A5212E00001010E162654
:10052A00000E1722182219221E0EBE6F000EBF6F70
:10053A0008DF1E0EBE6F000EBF6F4EDF1A6A82B052
:0C054A0002D0809C01D0808CE3D7FFD74A
:020000040030CA
:0E00000015187E7CFF8891FF0FC00FE00F40A7
:00000001FF
