:04000000E4EF0EF02B
:1000080000C015F0F2A410D0F2AA0ED0010E216E95
:100018002C2A190E2C5C03E3010E2B6E2C6A630E3E
:0E002800D76EBF0ED66EF29415C000F0110018
:0A003600850E0D6E0D2EFED7120090
:100040003A0E0C6E230E0D6E0D2EFED70C2EFCD725
:0200500012009C
:0C005200020E0D6E0D2EFED700001200F5
:10005E00086A080E0C6E003408360450085ED8B0DC
:0E006E0002D00826D89000360C2EF5D71200CE
:10007C000101DEBF02D0819601D08186DEBD02D0A7
:10008C00819401D08184DEBB02D0819201D0818227
:10009C00DEB902D0819001D081800001F1B102D093
:1000AC00818A01D0819A8188CEDF81980101DEB7E7
:1000BC0002D0819601D08186DEB502D0819401D028
:1000CC008184DEB302D0819201D08182DEB102D074
:1000DC00819001D081800001F1B102D0818A01D0E0
:1000EC00819A8188B0DF8198F1A102D0A3DF01D081
:0400FC009CDF120073
:10010000DAC104F0DBC105F0D8C102F0D9C103F0B7
:10011000DCC100F0DDC101F0010E0101DC5F000E69
:10012000DD5B005001100FE004C0E9FF05C0EAFFED
:1001300002C0E1FF03C0E2FFEECFE6FF024A032A5E
:10014000044A052AE5D7D8C100F0D9C101F0120050
:0E0150000001F191D8C1DEF191DFF1811200C2
:10015E000101DB6B030EDB5D0AE2DB51D925E16E9B
:10016E00000EDA21E26E200EE66EDB2BF3D7DB51AA
:10017E00D925E16E000EDA21E26EE66ADB07DB516D
:10018E00D925DC6F000EDA21DD6F0A0E046ED8C1A0
:10019E0000F05EDF08C000F0300E0026DCC1E1FF8B
:1001AE00DDC1E2FF00C0E6FF0A0E046ED8C100F00A
:1001BE004FDF00C0D8F10050000A01E102D0DB078A
:0401CE00DED7120066
:1001D200CDC1D8F10101D833D89FCEC1D9F1CFC159
:1001E200DAF1BCDF010ECD15016E0150010A17E1F3
:1001F200030ECE25D86F000ECF21D96F2E0ED06FF1
:10020200350ED16F730ED26FD36BD00EDA6F010E33
:10021200DB6F040EDC6F000EDD6F71DF16D0030E94
:10022200CE25D86F000ECF21D96F2E0ED46F300E8F
:10023200D56F730ED66FD76BD40EDA6F010EDB6FEC
:0C024200040EDC6F000EDD6F5ADF1200AE
:10024E000B6A0A6A096A00500402F4CF09F0F3CF70
:10025E0008F001500502F4CF0BF0F3CF0AF0005076
:10026E000502F3500926F4500A22E86A0B220150C7
:10027E000402F3500926F4500A22E86A0B2208C041
:10028E0000F009C001F00AC002F00BC003F012002A
:10029E0010D0800E0101CD6F1AD0C00ECD6F17D0C9
:1002AE00940ECD6F14D0D40ECD6F11D0800ECD6FB5
:1002BE000ED00101CD51010AECE0CD51020AEDE064
:1002CE00CD51030AEDE0CD51040AEDE0EFD7CE0596
:1002DE00006ECD51002600C0CDF100C0DEF1C7DEAC
:1002EE00F1910101D16BD151CF25E96E000ED021D4
:1002FE00EA6EEE520CE0D151CF25E96E000ED02100
:10030E00EA6EEECFD8F11DDF0101D12BECD7000143
:04031E00F181120057
:10032200086A096A100E0C6E013408360936045048
:10033200085E0550D8A0053C095ED8B007D004502D
:1003420008260550D8B0053C0926D890003601365B
:060352000C2EEAD7120098
:100358000900F5CFE6FF0006FBE10106F9E112000E
:100368007FA202D00000FCD77F9CCEC175FFCDC113
:1003780074FFCFC173FF7F9E7F84F2CF00F0F29E9F
:10038800550E7E6EAA0E7E6E7F8200BE02D0F29E51
:0803980001D0F28E7F941200E7
:1003A0007F9CCEC175FFCDC174FF7F9E7F8073CFD0
:0403B00000F0120047
:1003B400C30E0101D86F010ED96FB60EF66E1E0E74
:1003C400F76E000EF86E4C0EE16E010EE26E110E29
:1003D400006E010E016EBEDF4C0EDA6F010EDB6F94
:1003E4000A0EDC6F000EDD6F89DEF4D00101010E10
:1003F400CD6F010ECE6FC70EF66E1E0EF76E000E99
:10040400F86E5D0EE16E010EE26E110E006E010ECD
:10041400016EA0DF5D0ECF6F010ED06F3EDF35C0E1
:10042400CDF1C30E0101CE6F010ECF6FD0DE020EEF
:10043400CD6F050ECE6FC30ECF6F010ED06F2DDFC3
:10044400DFD0010E0101CD6F010ECE6FD80EF66E16
:100454001E0EF76E000EF86E6E0EE16E010EE26E69
:10046400110E006E010E016E75DF6E0ECF6F010E60
:10047400D06F13DF4AC0CDF1C30E0101CE6F010E60
:10048400CF6FA5DE020ECD6F050ECE6FC30ECF6FFC
:10049400010ED06F02DFB4D0010E0101CD6F010E49
:1004A400CE6FE90EF66E1E0EF76E000EF86E7F0E1E
:1004B400E16E010EE26E110E006E010E016E4ADF56
:1004C4007F0ECF6F010ED06FE8DE49C0CDF1C30EB1
:1004D4000101CE6F010ECF6F7ADE020ECD6F050ED5
:1004E400CE6FC30ECF6F010ED06FD7DE89D0010E51
:1004F4000101CD6F010ECE6FFA0EF66E1E0EF76E71
:10050400000EF86E900EE16E010EE26E110E006E9A
:10051400010E016E1FDF900ECF6F010ED06FBDDE96
:1005240048C0CDF1C30E0101CE6F010ECF6F4FDE77
:10053400020ECD6F050ECE6FC30ECF6F010ED06FBE
:10054400ACDE5ED0010E0101CD6F010ECE6F0B0E3D
:10055400F66E1F0EF76E000EF86EA10EE16E010E20
:10056400E26E110E006E010E016EF4DEA10ECF6F6D
:10057400010ED06F92DE020E0101CD6F010ECE6F1F
:1005840033C0CFF134C0D0F188DE3AD0010E01017E
:10059400CD6F010ECE6F1C0EF66E1F0EF76E000EA1
:1005A400F86EB20EE16E010EE26E110E006E010ED7
:1005B400016ED0DEB20ECF6F010ED06F6EDE020E72
:1005C4000101CD6F010ECE6F33C0CFF134C0D0F135
:1005D40064DE16D03650000AD8B408D73650010A63
:1005E400D8B42FD73650020AD8B456D73650030A97
:1005F400D8B47DD73650040AA5E03650050AC6E0C3
:020604001200E2
:1006060001014F6B0A0E4F5D4DE24CC150F14DC1D9
:1006160051F14FC100F0000E016E070E046E000E80
:10062600056E12DE5051002651510122050E00249E
:10063600E96E000E0120EA6EEE50000A31E14CC16F
:1006460050F14DC151F14FC100F0000E016E070E81
:10065600046E000E056EF8DD00505025E96E01505F
:100666005121EA6EEECF01F001504E1919E14CC14D
:1006760050F14DC151F14FC100F0000E016E070E51
:10068600046E000E056EE0DD505100265151012228
:10069600050E0024E16E000E0120E26E010EE66EEC
:0606A6004F2BB0D712003B
:1006AC000B6A0A6A096A086A0E6A0334083604502F
:1006BC00085E0550D8A0053C095E0650D8A0063C43
:1006CC000A5E0750D8A0073C0B5EE86AD8A0010E62
:1006DC000E5E0336070E0C6E0334083609360A36E6
:1006EC000B360E36045003A012D0085E0550D8A06D
:1006FC00053C095E0650D8A0063C0A5E0750D8A0FF
:10070C00073C0B5EE86AD8A0010E0E5E11D00826DD
:10071C000550D8B0053C09260650D8B0063C0A2630
:10072C000750D8B0073C0B26E86AD8B0010E0E264D
:10073C0003360C2ED1D70234083609360A360B365E
:10074C000E36045003A012D0085E0550D8A0053C0C
:10075C00095E0650D8A0063C0A5E0750D8A0073C9C
:10076C000B5EE86AD8A0010E0E5E11D0082605506B
:10077C00D8B0053C09260650D8B0063C0A260750CE
:10078C00D8B0073C0B26E86AD8B0010E0E2602360C
:10079C00070E0C6E0234083609360A360B360E3646
:1007AC00045002A012D0085E0550D8A0053C095E8A
:1007BC000650D8A0063C0A5E0750D8A0073C0B5E3A
:1007CC00E86AD8A0010E0E5E11D008260550D8B0EC
:1007DC00053C09260650D8B0063C0A260750D8B06E
:1007EC00073C0B26E86AD8B0010E0E2602360C2EFA
:1007FC00D1D70134083609360A360B360E3604507A
:10080C0002A012D0085E0550D8A0053C095E065027
:10081C00D8A0063C0A5E0750D8A0073C0B5EE86ADD
:10082C00D8A0010E0E5E11D008260550D8B0053C9C
:10083C0009260650D8B0063C0A260750D8B0073C0B
:10084C000B26E86AD8B0010E0E260136070E0C6E88
:10085C000134083609360A360B360E36045001A020
:10086C0012D0085E0550D8A0053C095E0650D8A0F1
:10087C00063C0A5E0750D8A0073C0B5EE86AD8A07D
:10088C00010E0E5E11D008260550D8B0053C092685
:10089C000650D8B0063C0A260750D8B0073C0B26A9
:1008AC00E86AD8B0010E0E2601360C2ED1D70034D2
:1008BC00083609360A360B360E36045001A012D013
:1008CC00085E0550D8A0053C095E0650D8A0063C31
:1008DC000A5E0750D8A0073C0B5EE86AD8A0010E50
:1008EC000E5E11D008260550D8B0053C09260650DE
:1008FC00D8B0063C0A260750D8B0073C0B26E86A4D
:10090C00D8B0010E0E260036070E0C6E00340836D9
:10091C0009360A360B360E36045000A012D0085E8B
:10092C000550D8A0053C095E0650D8A0063C0A5ECE
:10093C000750D8A0073C0B5EE86AD8A0010E0E5EEB
:10094C0011D008260550D8B0053C09260650D8B061
:10095C00063C0A260750D8B0073C0B26E86AD8B0EC
:10096C00010E0E2600360C2ED1D700B00ED004503E
:10097C0008260550D8B0053C09260650D8B0063CD0
:0C098C000A260750D8B0073C0B261200CA
:100998000101506B050E505D0AE250514E25E16E83
:1009A800000E4F21E26E200EE66E502BF3D7505109
:1009B8004E25E16E000E4F21E26EE66A5007505157
:1009C8004E25516F000E4F21526F0A0E046E000E15
:1009D800056E4CC100F04DC101F09FDC08C000F06D
:1009E80009C001F0300E002651C1E1FF52C1E2FFFB
:1009F80000C0E6FF0A0E046E000E056E4CC100F042
:100A08004DC101F08ADC00C04CF101C04DF1000E6F
:100A1800011802E1000E001801E102D05007CFD7FB
:020A28001200BA
:100A2A000101546B556B566B576B460E4C25E96E9C
:100A3A00000E4D21EA6E4E51EE24546F4F51EE20B6
:100A4A00556F5051EE20566F5151EE20576F536B30
:100A5A000A0E535DD8B086D04CC158F14DC159F138
:100A6A0053C100F0000E016E070E046E000E056EF3
:100A7A0027EC01F05851002659510122050E002495
:100A8A00E96E000E0120EA6EEE50010A69E14CC1DE
:100A9A0058F14DC159F153C100F0000E016E070E15
:100AAA00046E000E056E27EC01F000505825E16E29
:100ABA0001505921E26E52C1E6FF4CC158F14DC1B5
:100ACA0059F153C100F0000E016E070E046E000EBC
:100ADA00056E27EC01F05851002659510122010EEA
:100AEA000024E16E000E0120E26E54C1E6FF55C1FA
:100AFA00E6FF56C1E6FF57C1E6FF4CC158F14DC1AA
:100B0A0059F153C100F0000E016E070E046E000E7B
:100B1A00056E27EC01F05851002659510122050EA5
:100B2A000024E16E000E0120E26EE66A4CC158F123
:100B3A004DC159F153C100F0000E016E070E046E4B
:100B4A00000E056E27EC01F058510026595101227A
:100B5A00060E0024E16E000E0120E26EE66A02D063
:060B6A00532B76D71200A8
:100B70000101CD6BCE6B14DC00C035F0010ECD6FE2
:100B8000000ECE6F0DDC00C04AF0020ECD6F000EDD
:100B9000CE6F06DC00C049F0030ECD6F000ECE6FA5
:0A0BA000D0EC01F000C048F0120094
:100BAA000101CD6BCE6B35C0CFF1B4EC01F0010E73
:100BBA000101CD6F000ECE6F4AC0CFF1B4EC01F047
:100BCA00020E0101CD6F000ECE6F49C0CFF1B4EC19
:100BDA0001F0030E0101CD6F000ECE6F48C0CFF1B8
:060BEA00B4EC01F0120062
:100BF00001014F6B506B4F6B0A0E4F5D6EE24CC1A3
:100C000051F14DC152F14FC100F0000E016E070EBF
:100C1000046E000E056E27EC01F051510026525172
:100C20000122050E0024E96E000E0120EA6EEE504E
:100C3000000A51E14CC151F14DC152F14FC100F0D8
:100C4000000E016E070E046E000E056E27EC01F01B
:100C50005151002652510122060E0024E96E000E69
:100C60000120EA6EEE50010A36E14CC151F14DC14E
:100C700052F14FC100F0000E016E070E046E000E1F
:100C8000056E27EC01F000505125E96E015052210C
:100C9000EA6EEECF01F001504E191DE14CC151F149
:100CA0004DC152F14FC100F0000E016E070E046EEF
:100CB000000E056E27EC01F0515100265251012221
:100CC000050E0024E16E000E0120E26E010EE66EBC
:100CD000010E506F02D04F2B8FD750C100F0120081
:100CE0004C0E01014C6F000E4D6F340E4E6F80DFC5
:100CF00000523FE0040E4B6E2350000A1DE12450C9
:100D0000000A1AE1020ECD6F010ECE6FB70EF66E1D
:100D10001F0EF76E000EF86E190EE16E010EE26EF8
:100D2000110E006E010E016EACEC01F0190ECF6FCA
:100D3000010ED06F4FEC01F0040E2A6E4C0E010133
:100D40004C6F000E4D6F49C000F0000E016E003672
:100D50000136009000504A5C4E6F01C04FF1000E0A
:100D60004F57000E4FBFFF0E506F516F350E526F31
:100D70005CDE82B040D04C0E4C6F000E4D6F350ED5
:100D80004E6F41DC4C0E4C6F000E4D6F340E4E6FAB
:100D90003ADC030E4B6E2350000A1DE12450000A7A
:100DA0001AE1020ECD6F010ECE6FC80EF66E1F0E49
:100DB000F76E000EF86E2A0EE16E010EE26E110E55
:100DC000006E010E016EACEC01F02A0ECF6F010E29
:100DD000D06F4FEC01F0010E2A6E4C0E01014C6FEA
:100DE000000E4D6F49C04EF1000E4F6F506F516FA6
:080DF000320E526F1ADE1200F0
:100DF80025C005F026C006F027C007F028C008F077
:100E08001B50055E1C50065A1D50075A1E50085AA2
:100E180005C001F006C002F007C003F008C004F0E6
:100E28000432033202320132049E01C019F102C0B9
:100E38001AF103C01BF104C01CF104500001EF19A2
:100E480008E10350EE1905E10250ED1902E10150E5
:100E5800EC19D8B4CED019C1ECF01AC1EDF01BC111
:100E6800EEF01CC1EFF03C0E046E000E056E066E2F
:100E7800076E19C100F01AC101F01BC102F01CC1B4
:100E880003F010DC08C000F009C001F00AC002F04D
:100E98000BC003F000C01EF13C0E046E000E056E80
:100EA800066E076E19C100F01AC101F01BC102F0ED
:100EB8001CC103F056EC03F000C019F101C01AF18F
:100EC80002C01BF103C01CF13C0E046E000E056E3F
:100ED800066E076E56EC03F008C000F009C001F07A
:100EE8000AC002F00BC003F000C01DF13C0E046EF6
:100EF800000E056E066E076E19C100F01AC101F0EA
:100F08001BC102F01CC103F056EC03F000C04CF109
:100F180001C04DF1210E01014E6F010E4F6F38DDFA
:100F28001DC1D8F1270ED96F010EDA6FAFEC00F0B2
:100F38001EC1D8F12B0ED96F010EDA6FAFEC00F09D
:100F48001F0ED86F010ED96F4C0E306F430E316FE4
:100F58003A0E326F336B300EDA6F010EDB6F030E11
:100F6800DC6F000EDD6F80EC00F0260ED86F010EEE
:100F7800D96F480E346F200E356F366B340EDA6F2A
:100F8800010EDB6F020EDC6F000EDD6F80EC00F0EF
:100F98002A0ED86F010ED96F4D0E376F200E386F9D
:100FA800396B370EDA6F010EDB6F020EDC6F000E45
:100FB800DD6F80EC00F02E0ED86F010ED96F530E46
:100FC8003A6F200E3B6F3C6B3A0EDA6F010EDB6F07
:100FD800020EDC6F000EDD6F80EC00F02F6B010E4F
:100FE800CD6F010ECE6F1F0ECF6F010ED06F4FEC7D
:040FF80001F01200F2
:100FFC00010E166E62D01FA206D0FF0E355C03E206
:10100C00352ADAEC01F01FA406D03550000803E2B3
:10101C003506DAEC01F01FA002D0010E246E5FD071
:10102C001FA206D0FF0E4A5C03E24A2ADAEC01F05A
:10103C001FA406D04A50000803E24A06DAEC01F07D
:10104C001FA002D0010E246E4AD01FA206D0FF0EA4
:10105C00495C03E2492ADAEC01F01FA406D049509E
:10106C00000803E24906DAEC01F01FA002D0010EE1
:10107C00246E35D01FA206D0FF0E485C03E2482A2E
:10108C00DAEC01F01FA406D04850000803E2480631
:10109C00DAEC01F01FA002D0010E246E20D01FA0AC
:1010AC0001D0246A166A7BDD246A19D01FA001D0F6
:1010BC00246A166A57DD246A12D03650000A9BE067
:1010CC003650010AADE03650020ABFE03650030A32
:1010DC00D1E03650040AE3E03650050AE7E012008E
:1010EC0010D0800E0101196F1AD0C00E196F17D0D5
:1010FC00940E196F14D0D40E196F11D0800E196F75
:10110C000ED001011951010AECE01951020AEDE06F
:10111C001951030AEDE01951040AEDE0EFD71A0555
:10112C00006E1951002600C019F10001F18100C0B8
:10113C00DEF13EEC00F0F1911BC1DEF13EEC00F073
:04114C00F18112001B
:10115000FF0E0001E46FFF0EE56FFF0EE66FFF0E5E
:10116000E76FFF0EE06FFF0EE16F000EE26F000E03
:10117000E36FFF0EDC6FFF0EDD6F000EDE6F000E03
:10118000DF6FFF0EE86FFF0EE96F000EEA6F000ED3
:10119000EB6FAC8A900EAB6E948E949C9EAA03D09B
:0811A000AECF00F0FBD71200F6
:1011A8009398939A93909392939493968198819A13
:1011B800819681948192819020EC00F020EC00F0DF
:1011C80020EC00F081828180818829EC00F08198F0
:1011D80020EC00F0818829EC00F0819820EC00F0E8
:1011E800818829EC00F0819820EC00F081908188BA
:1011F80029EC00F0819820EC00F0818829EC00F0BF
:10120800819881928186818829EC00F0819820EC70
:1012180000F081968180818829EC00F08198819086
:10122800818829EC00F0819820EC00F0818829EC75
:1012380000F081988180818829EC00F0819820EC69
:1012480000F08190818829EC00F081988186818462
:1012580081828180818829EC00F0819820EC00F05F
:061268000001F1811200FB
:10126E0001011B6B0A0E1B5D66E219C11CF11AC14E
:10127E001DF11BC100F0000E016E070E046E000E74
:10128E00056E27EC01F000501C25E16E01501D216A
:10129E00E26EE66A19C11CF11AC11DF11BC100F004
:1012AE00000E016E070E046E000E056E27EC01F0A7
:1012BE001C5100261D510122010E0024E16E000E6C
:1012CE000120E26EE66AE66AE66AE66A19C11CF178
:1012DE001AC11DF11BC100F0000E016E070E046E47
:1012EE00000E056E27EC01F01C5100261D51012247
:1012FE00050E0024E16E000E0120E26E010EE66E78
:10130E0019C11CF11AC11DF11BC100F0000E016EB6
:10131E00070E046E000E056E27EC01F01C51002620
:10132E001D510122060E0024E16E000E0120E26E18
:10133E00E66A1B2B97D7460E1925E16E000E1A2171
:0C134E00E26EE66AE66AE66AE66A1200F1
:10135A00FF0E0001E46FFF0EE56FFF0EE66FFF0E52
:10136A00E76FFF0EE06FFF0EE16F000EE26F000EF7
:10137A00E36FFF0EDC6FFF0EDD6F000EDE6F000EF7
:10138A00DF6FFF0EE86FFF0EE96F000EEA6F000EC7
:10139A00EB6FBA8A900EA66E958E959CA4AA03D07E
:0813AA007ACF00F0FBD712001E
:1013B2004C0E01014C6F000E4D6F330E4E6F17DC59
:1013C200005245E04B6A2350000A1DE12450000AF6
:1013D2001AE1020ECD6F010ECE6F0C0EF66E200ECC
:1013E200F76E000EF86E190EE16E010EE26E110E2E
:1013F200006E010E016EACEC01F0190ECF6F010E02
:10140200D06F4FEC01F0030E2A6E4C0E01014C6FAF
:10141200000E4D6F49C04EF1000E4F6F4E374F37E1
:101422004E91000E4FBFFF0E506F516F340E526F30
:1014320015EC05F049502524176E000E2620186E73
:10144200000E2720196E000E28201A6E296A12003B
:101452004C0E01014C6F000E4D6F360E4E6FF8ECC4
:1014620005F0005223E0020E4B6E2350000A1DE1EC
:101472002450000A1AE1020ECD6F010ECE6FFB0E50
:10148200F66E1F0EF76E000EF86E190EE16E010E6B
:10149200E26E110E006E010E016EACEC01F0190E3F
:0E14A200CF6F010ED06F4FEC01F02A6A1200DE
:1014B0004C0E01014C6F000E4D6F350E4E6FF8EC67
:1014C00005F0005238E04B6A2350000A1DE1245019
:1014D000000A1AE1020ECD6F010ECE6F620EF66E9B
:1014E0001F0EF76E000EF86E190EE16E010EE26E21
:1014F000110E006E010E016EACEC01F0190ECF6FF3
:10150000010ED06F4FEC01F0050E2A6E4C0E01015A
:101510004C6F000E4D6F49C04EF1000E4F6F4E37AD
:101520004F374E91000E4FBFFF0E506F516F360E6A
:10153000526F15EC05F082B04DD04C0E4C6F000E82
:101540004D6F350E4E6F03EC03F04C0E4C6F000EDA
:101550004D6F360E4E6F03EC03F0030E4B6E2350AF
:10156000000A1DE12450000A1AE1020ECD6F010E9F
:10157000CE6F730EF66E1F0EF76E000EF86E2A0E0B
:10158000E16E010EE26E110E006E010E016EACEC0A
:1015900001F02A0ECF6F010ED06F4FEC01F0010E5B
:1015A0002A6E4C0E01014C6F000E4D6F25C04EF19E
:1015B00026C04FF127C050F128C051F117504E5F9F
:1015C00018504F5B1950505B1A50515B320E526FDE
:1015D00015EC05F029524EE04C0E4C6F000E4D6F8D
:1015E000350E4E6F03EC03F04C0E4C6F000E4D6F3A
:1015F000360E4E6F03EC03F0030E4B6E2350000AC1
:101600001DE12450000A1AE1020ECD6F010ECE6FCB
:10161000840EF66E1F0EF76E000EF86E3B0EE16E36
:10162000010EE26E110E006E010E016EACEC01F0C7
:101630003B0ECF6F010ED06F4FEC01F0010E2A6E02
:101640004C0E01014C6F000E4D6F25C04EF126C0AF
:101650004FF127C050F128C051F117504E5F18507C
:101660004F5B1950505B1A50515B320E526F15ECA4
:0616700005F0296A1200DA
:101676004C0E01014C6F000E4D6F320E4E6FF8ECA2
:1016860005F0005238E0010E4B6E2350000A1DE1B2
:101696002450000A1AE1020ECD6F010ECE6FEA0E3B
:1016A600F66E1F0EF76E000EF86E190EE16E010E45
:1016B600E26E110E006E010E016EACEC01F0190E19
:1016C600CF6F010ED06F4FEC01F0020E2A6E4C0E5A
:1016D60001014C6F000E4D6F4950485C4E6F4F6BC9
:1016E600000E4F5B000E4FBFFF0E506F516F330E53
:0816F600526F15EC05F0120023
:1016FE00166A1FA406D03650000803E23606010E05
:10170E00246E1FA206D0050E365C03E2362A010EA9
:0C171E00246E1FA002D0030E246E1200E7
:10172A00295234E04C0E01014C6F000E4D6F35C04A
:10173A004EF1000E4F6F506F516F320E526F15EC13
:10174A0005F0030E4B6E2350000A1DE12450000AD7
:10175A001AE1020ECD6F010ECE6FD90EF66E1F0E74
:10176A00F76E000EF86E190EE16E010EE26E110EA2
:10177A00006E010E016EACEC01F0190ECF6F010E76
:0E178A00D06F4FEC01F0010E2A6E296A12009A
:0A179800DAEC01F0020E246E1200DC
:1017A2002E50000801E22E062D50000801E22D06FF
:0217B200120023
:1017B400600ED36E9B8C0F015D6B5C6B806A816ADB
:1017C400826A836A846ABF0E926EC00E936E810E23
:1017D400946EB00E956E0E0E966E810ED56E630EDF
:1017E400D76EBF0ED66EF28EF28ADCDC0C0E0101CF
:1017F400DE6F3EEC00F0150E0B6E4B0E0C6EBE0E43
:101804000D6E0D2EFED70C2EFCD70B2EFAD7000032
:10181400808CCF0EAF6EAC8499DCCF0E7B6EBA8415
:101824009ADD4C0E0101196F000E1A6F1EDD020EB7
:081834004B6EB8EC05F0120048
:10183C000101146B156B83BA02D0148101D0149181
:10184C0080BE02D0148301D0149383B802D01485C7
:10185C0001D01495CED01451000A0DE02E50000A80
:10186C000AE114C115F1010E2E6E640E2D6E010EDF
:10187C00306E14C132F0CFD02E50000A08E1145152
:10188C00000A05E1156B326A010E2E6E306A2E507D
:10189C00000A0EE1145132180BE12D50000A08E138
:1018AC0014C115F1020E306E190E2D6E0A0E316E2A
:1018BC002E50000A0CE11451321809E01451000AA0
:1018CC0006E014C115F114C132F0010E2E6EA3D036
:1018DC00145132180BE12D50000A08E13150000868
:1018EC0005E214C115F1190E2D6E31061451321882
:1018FC000EE12D50000A0BE13150000A08E114C131
:10190C0015F10F0E2D6E0A0E316E030E306E145142
:10191C0032180DE01451000A0AE014C115F114C17B
:10192C0032F0010E2E6E640E2D6E010E306E1451BF
:10193C00000A05E1156B326A010E2E6E306A6BD00F
:10194C00145132180BE12D50000A08E131500008F7
:10195C0005E214C115F10F0E2D6E3106145132181B
:10196C000CE12D50000A09E13150000A06E114C1C6
:10197C0015F1080E2D6E040E306E145132180DE058
:10198C001451000A0AE014C115F114C132F0010E11
:10199C002E6E640E2D6E010E306E1451000A05E190
:1019AC00156B326A010E2E6E306A35D01451321816
:1019BC0007E12D50000A04E114C115F1080E2D6E3B
:1019CC00145132180DE01451000A0AE014C115F13B
:1019DC0014C132F0010E2E6E640E2D6E010E306E9F
:1019EC001451000A05E1156B326A010E2E6E306A35
:1019FC0012D03050000AD8B42ED73050010AD8B4C7
:101A0C003BD73050020AD8B463D73050030A98E061
:0C1A1C003050040ACBE015C100F01200AD
:101A28000ED01FA002D0010E246EFCEC06F013D0DD
:101A3800AFDE11D060DE0FD0FEEC07F00CD02450E2
:101A4800000AEFE02450010AF3E02450020AF2E011
:081A58002450030AF1E0120022
:101A60000DD063DE1DD007DE1BD0A3DC19D070ECD7
:101A700006F016D01DDD14D0ECDC12D02A50000A7E
:101A8000F0E02A50010AEFE02A50020AEEE02A5064
:101A9000030AEDE02A50040AEDE02A50050AECE0C2
:021AA000120032
:101AA200165272E016C0F0F0225237E0020E010127
:101AB200196F010E1A6F3E0E1B6F76EC08F0020EC4
:101AC2000101196F020E1A6F3E0E1B6F76EC08F0C1
:101AD200020E0101196F030E1A6F3E0E1B6F76EC98
:101AE20008F0020E0101196F100E1A6F3C0E1B6FE7
:101AF20076EC08F0020E0101196F0F0E1A6F3C0E00
:101B02001B6F76EC08F0020E0101196F0E0E1A6FB0
:101B12003C0E1B6F76EC08F036D0020E0101196FF5
:101B2200010E1A6F200E1B6F76EC08F0020E0101F7
:101B3200196F020E1A6F200E1B6F76EC08F0020E60
:101B42000101196F030E1A6F200E1B6F76EC08F05D
:101B5200020E0101196F100E1A6F200E1B6F76EC28
:101B620008F0020E0101196F0F0E1A6F200E1B6F83
:101B720076EC08F0020E0101196F0E0E1A6F200E9C
:101B82001B6F76EC08F03BD00001F05336E0020EFA
:101B92000101196F010E1A6F200E1B6F76EC08F00F
:101BA200020E0101196F020E1A6F200E1B6F76ECE6
:101BB20008F0020E0101196F030E1A6F200E1B6F3F
:101BC20076EC08F0020E0101196F100E1A6F200E4A
:101BD2001B6F76EC08F0020E0101196F0F0E1A6FDF
:101BE200200E1B6F76EC08F0020E0101196F0E0E2B
:101BF2001A6F200E1B6F76EC08F022C0F0F0120074
:101C0200460E01011425E96E000E1521EA6EEECF93
:101C120001F0EECF02F0EECF03F0EECF04F004506D
:101C2200FF0A08E10350FF0A05E10250FF0A02E140
:101C32000150FF0A24E00101460E1425046E000E35
:101C42001521056E04C0E9FF05C0EAFF010EEE246E
:101C5200006E000EEE20016E000EEE20026E000EEF
:101C6200EE20036E04C0E1FF05C0E2FF00C0E6FF04
:101C720001C0E6FF02C0E6FF03C0E6FF0BD0010190
:101C8200460E1425E16E000E1521E26EE66AE66A42
:061C9200E66AE66A12009A
:101C98000101166B166B0A0E165DD8B090D014C1F0
:101CA80017F115C118F116C100F0000E016E070EEC
:101CB800046E000E056E27EC01F01751002618512E
:101CC8000122050E0024E96E000E0120EA6EEE5096
:101CD800000A73E114C117F115C118F116C100F01B
:101CE800000E016E070E046E000E056E27EC01F063
:101CF8001751002618510122010E0024E96E000E2A
:101D08000120EA6EEECF05F0EECF06F0EECF07F039
:101D1800EECF08F0460E1425D96E000E1521DA6EA6
:101D2800D9CFE9FFDACFEAFFEECF01F0EECF02F02C
:101D3800EECF03F0EECF04F00850041808E1075086
:101D4800031805E10650021802E10550011835E1B3
:101D580014C117F115C118F116C100F0000E016E7B
:101D6800070E046E000E056E27EC01F017510026D1
:101D780018510122060E0024E96E000E0120EA6EB9
:101D8800EE50000A1AE114C117F115C118F116C175
:101D980000F0000E016E070E046E000E056E27ECB3
:101DA80001F01751002618510122060E0024E16E99
:101DB800000E0120E26E010EE66E162B6CD71200A3
:101DC8000FEC10F0F3DC010ECD6F010ECE6F950E07
:101DD800F66E1F0EF76E000EF86EF20EE16E000E34
:101DE800E26E110E006E010E016EACEC01F0F20E07
:101DF800CF6F000ED06F4FEC01F0020E0101CD6FD6
:101E0800010ECE6FA60EF66E1F0EF76E000EF86E60
:101E1800030EE16E010EE26E110E006E010E016EF0
:101E2800ACEC01F0030ECF6F010ED06F4FEC01F058
:101E3800215208E0B2DC2050000802E2200601D05E
:101E4800829A216A2B521EE02F50000802E22F06C8
:101E580001D0809C2252010ED8A4000E226E1DDEF5
:101E6800010E2526000E2622272228224C0E0101CB
:101E7800146F000E156FC1DE4C0E146F000E156F37
:101E880007DF2B6AD7DC00C01FF00050000A04E00F
:101E98000A0E2F6E030E206E2350000A01E1C0DDEA
:0E1EA800DBDD2F50000801E2808CC2D7FFD78F
:10201E0010EE16F0350E006E010E016E2D0EF66EE0
:0E202E001F0EF76E000EF86EACEC01F0120003
:101EB600202020202020202020202020202020201C
:011EC600001B
:101EC700204F70656E6E696E672054696D652020BE
:011ED700000A
:101ED8002020436C6F73696E672054696D652020FC
:011EE80000F9
:101EE9002020496E76616C69642054696D652020F3
:011EF90000E8
:101EFA004175746F636C6F73652054696D6520203A
:011F0A0000D6
:101F0B00202053617665204368616E6765732020DE
:011F1B0000C5
:101F1C0020446973636172642026204578697420BB
:011F2C0000B4
:011F2D0000B3
:041F2E0000000000AF
:041F320000000000AB
:011F360000AA
:011F370005A4
:011F380000A8
:011F390000A7
:011F3A0000A6
:011F3B0000A5
:041F3C0000000000A1
:011F400000A0
:011F4100009F
:011F4200009E
:011F4300009D
:011F4400009C
:011F4500009B
:011F46000A90
:011F47000099
:011F48000098
:011F49000097
:021F4A0037005E
:011F4C000A8A
:011F4D000093
:101F4E002020202020202020202020202020202083
:011F5E000082
:011F5F00146D
:011F6000017F
:011F61000A75
:101F620020202020496E76616C6964202020202088
:011F7200006E
:101F7300202020204F70656E6E696E672020202020
:011F8300005D
:101F8400202020204F70656E6E696E67202020200F
:011F9400004C
:101F950020202020205374617274212020202020CD
:011FA500003B
:101FA600202020202020202020202020202020202B
:011FB600002A
:101FB70020202020436C6F73696E6720202020202B
:011FC7000019
:101FC800202020204F70656E6E696E6720202020CB
:011FD8000008
:101FD900202020204F70656E6E696E6720202020BA
:011FE90000F7
:101FEA0020202020204F70656E656420202020204C
:011FFA0000E6
:101FFB002020202020436C6F73656420202020203C
:01200B0000D4
:10200C0020202020496E76616C69642020202020DD
:01201C0000C3
:020000040030CA
:0E0000001D187F7CFF8991FF0FC00FE00F409D
:0200000400F00A
:0200000400F00A
:10000000141402280000000000000000000000009E
:10001000FFFFFFFFFFFFFFFFFFFFFFFFFFFFFFFFF0
:10002000FFFFFFFFFFFFFFFFFFFFFFFFFFFFFFFFE0
:10003000FFFFFFFFFFFFFFFFFFFFFFFFFFFFFFFFD0
:10004000FFFFFFFFFFFFFFFFFFFFFFFFFFFFFFFFC0
:00000001FF
