:0400000006EF08F00F
:1000080000C015F0F2A410D0F2AA0ED0010E226E94
:10001800202A190E205C03E3010E216E206A630E6C
:0E002800D76EBF0ED66EF29415C000F0110018
:0C003600020E0D6E0D2EFED70000120011
:100042003A0E0C6E230E0D6E0D2EFED70C2EFCD723
:0200520012009A
:0A005400850E0D6E0D2EFED7120072
:10005E000B6A0A6A096A00500402F4CF09F0F3CF62
:10006E0008F001500502F4CF0BF0F3CF0AF0005068
:10007E000502F3500926F4500A22E86A0B220150B9
:10008E000402F3500926F4500A22E86A0B2208C033
:10009E0000F009C001F00AC002F00BC003F012001C
:1000AE00010141BF02D0819601D0818641BD02D0AF
:1000BE00819401D0818441BB02D0819201D0818292
:1000CE0041B902D0819001D0818027B002D0818ABF
:1000DE0001D0819A8188A8DF819841B702D081969C
:1000EE0001D0818641B502D0819401D0818441B383
:1000FE0002D0819201D0818241B102D0819001D093
:10010E00818027B002D0818A01D0819A81888CDFCC
:0E011E00819827A002D08EDF01D095DF12005D
:10012C0035C104F036C105F033C102F034C103F01F
:10013C0037C100F038C101F0010E0101375F000E2C
:10014C00385B005001100FE004C0E9FF05C0EAFF66
:10015C0002C0E1FF03C0E2FFEECFE6FF024A032A32
:10016C00044A052AE5D733C100F034C101F012006E
:10017C000900F5CFE6FF0006FBE10106F9E11200EC
:10018C0001013B6B3C6B3D6B3E6B8C0E3325E96E7A
:10019C00000E3421EA6E3551EE243B6F3651EE20C1
:1001AC003C6F3751EE203D6F3851EE203E6F3A6B6D
:1001BC00140E3A5DD8B081D033C13FF134C140F157
:1001CC00070E006E000E016E3AC104F0000E056EB3
:1001DC0040DF3F51002640510122050E0024E96EFC
:1001EC00000E0120EA6EEE50010A65E133C13FF1C9
:1001FC0034C140F1070E006E000E016E3AC104F0DE
:10020C00000E056E26DF00503F25E16E01504021A7
:10021C00E26E39C1E6FF33C13FF134C140F1070E44
:10022C00006E000E016E3AC104F0000E056E11DF77
:10023C003F51002640510122010E0024E16E000EB8
:10024C000120E26E3BC1E6FF3CC1E6FF3DC1E6FF8B
:10025C003EC1E6FF33C13FF134C140F1070E006EE1
:10026C00000E016E3AC104F0000E056EF2DE3F5135
:10027C00002640510122050E0024E16E000E0120E3
:10028C00E26EE66A33C13FF134C140F1070E006EF5
:10029C00000E016E3AC104F0000E056EDADE3F511D
:1002AC00002640510122060E0024E16E000E0120B2
:0C02BC00E26EE66A02D03A2B7BD71200FB
:1002C8000101366B376B366B140E365D6AE233C14B
:1002D80038F134C139F1070E006E000E016E36C1D7
:1002E80004F0000E056EB7DE3851002639510122A0
:1002F800050E0024E96E000E0120EA6EEE50000A99
:100308004EE133C138F134C139F1070E006E000EE9
:10031800016E36C104F0000E056E9DDE38510026D0
:1003280039510122060E0024E96E000E0120EA6E02
:10033800EE50010A34E133C138F134C139F1070E06
:10034800006E000E016E36C104F0000E056E83DEED
:1003580000503825E96E01503921EA6EEECF01F0E0
:10036800015035191CE133C138F134C139F1070E98
:10037800006E000E016E36C104F0000E056E6BDED5
:100388003851002639510122050E0024E16E000E75
:100398000120E26E010EE66E010E376F02D0362B99
:0803A80093D737C100F01200E9
:1003B0000101366B140E365D4DE233C137F134C1A5
:1003C00038F1070E006E000E016E36C104F0000E0B
:1003D000056E45DE3751002638510122050E0024F6
:1003E000E96E000E0120EA6EEE50000A31E133C1E1
:1003F00037F134C138F1070E006E000E016E36C1C0
:1004000004F0000E056E2BDE00503725E96E01501A
:100410003821EA6EEECF01F00150351919E133C1F0
:1004200037F134C138F1070E006E000E016E36C18F
:1004300004F0000E056E13DE3751002638510122FC
:10044000050E0024E16E000E0120E26E010EE66E44
:06045000362BB0D71200AC
:10045600200E01013325E16E000E3421E26E010EFD
:04046600E66E12002C
:0C046A00279033C141F11EDE27801200F4
:100476004C0E0101336F000E346F360E356F21DFDF
:10048600005226E0020E0001DC6F380E0101336FC8
:10049600000E346F390EF66E110EF76E000EF86E02
:1004A600000EE16E010EE26E110E006E010E016E7F
:1004B60062DE000E356F010E366F100E376F000EBE
:1004C600386F31DE280E336F000E346FC1DF1E6ABF
:0204D600120012
:1004D8004C0E0101336F000E346F350E356FF0DEB0
:1004E800005239E00001DC6B380E0101336F000E59
:1004F800346FA00EF66E100EF76E000EF86E000E3A
:10050800E16E010EE26E110E006E010E016E32DE1A
:10051800000E356F010E366F100E376F000E386FF4
:1005280001DE280E336F000E346F91DF050E1E6E4C
:100538004C0E336F000E346F17C035F1000E366F56
:10054800353736373591000E36BFFF0E376F386FA7
:10055800360E396F17DE80BA4CD04C0E336F000E52
:10056800346F350E356F20DF4C0E336F000E346F4D
:10057800360E356F19DF030E0001DC6F380E0101EE
:10058800336F000E346FB10EF66E100EF76E000E5C
:10059800F86E110EE16E010EE26E110E006E010E84
:1005A800016EE8DD110E356F010E366F100E376FD4
:1005B800000E386FB7DD280E336F000E346F47DF3B
:1005C800010E1E6E4C0E336F000E346F23C035F1D2
:1005D80024C036F125C037F126C038F11850355FF0
:1005E8001950365B1A50375B1B50385B320E396F27
:1005F800C9DD16524DE04C0E336F000E346F350EC8
:10060800356FD2DE4C0E336F000E346F360E356FF9
:10061800CBDE030E0001DC6F380E0101336F000ED4
:10062800346FC20EF66E100EF76E000EF86E220EC4
:10063800E16E010EE26E110E006E010E016E9ADD82
:10064800220E356F010E366F100E376F000E386FA1
:1006580069DD280E336F000E346FF9DE010E1E6E51
:100668004C0E336F000E346F23C035F124C036F1C1
:1006780025C037F126C038F11850355F1950365B60
:100688001A50375B1B50385B320E396F7BDD166AA8
:0206980012004E
:10069A004C0E0101336F000E346F320E356F0FDED0
:1006AA00005239E0010E0001DC6F380E0101336F90
:1006BA00000E346F280EF66E110EF76E000EF86EED
:1006CA00000EE16E010EE26E110E006E010E016E59
:1006DA0050DD000E356F010E366F100E376F000EAB
:1006EA00386F1FDD280E336F000E346FAFDE020E37
:1006FA001E6E4C0E336F000E346F17501C5C356F34
:10070A00366B000E365B000E36BFFF0E376F386F42
:08071A00330E396F36DD1200C9
:100722004C0E0101336F000E346F330E356FCBDD8B
:10073200005246E00001DC6B380E0101336F000EFF
:10074200346F060EF66E110EF76E000EF86E000E86
:10075200E16E010EE26E110E006E010E016E0DDDF4
:10076200000E356F010E366F100E376F000E386FA8
:10077200DCDC280E336F000E346F6CDE030E1E6E4F
:100782004C0E336F000E346F17C035F1000E366F0A
:10079200353736373591000E36BFFF0E376F386F5B
:1007A200340E396FF2DC17502324186E000E242009
:1007B200196E000E25201A6E000E26201B6E166A78
:0207C200120023
:1007C4000101006B140E005D63E201C103F102C17B
:1007D40004F1070E006E000E016E00C104F0000E5D
:1007E400056E3BDC00500325E16E01500421E26EEE
:1007F400E66A01C103F102C104F1070E006E000EA6
:10080400016E00C104F0000E056E27DC03510026C2
:1008140004510122010E0024E16E000E0120E26E5B
:10082400E66AE66AE66AE66A01C103F102C104F116
:10083400070E006E000E016E00C104F0000E056E7E
:100844000CDC0351002604510122050E0024E16E44
:10085400000E0120E26E010EE66E01C103F102C139
:1008640004F1070E006E000E016E00C104F0000ECC
:10087400056E2FEC00F00351002604510122060EF0
:100884000024E16E000E0120E26EE66A002B9AD786
:100894008C0E0125E16E000E0221E26EE66AE66A24
:0608A400E66AE66A12009C
:1008AA00FF0E0001DD6FFF0EDE6FFF0EDF6FFF0E22
:1008BA00E06FFF0EE16FFF0EE26F000EE36F000EB6
:1008CA00E46FFF0EE96FFF0EEA6F000EEB6F000E8A
:1008DA00EC6FFF0EE56FFF0EE66F000EE76F000E7E
:1008EA00E86FAC8A900EAB6E948E949C9EAA03D04D
:0808FA00AECF00F0FBD71200A5
:100902004C0E0101336F000E346F340E356FDBDC99
:10091200005243E0040E0001DC6F380E0101336F18
:10092200000E346FD30EF66E100EF76E000EF86ED8
:10093200000EE16E010EE26E110E006E010E016EEE
:100942001CDC000E356F010E366F100E376F000E75
:10095200386F96EC00F0280E336F000E346F7ADD9C
:10096200040E1E6E4C0E336F000E346F17C000F073
:10097200000E016E00360136009000501F5C356F8C
:1009820001C036F1000E3657000E36BFFF0E376F2C
:10099200386F350E396FC6EC00F080BA45D04C0E78
:1009A200336F000E346F350E356F01DD4C0E336F31
:1009B200000E346F340E356FFADC030E0001DC6F6B
:1009C200380E0101336F000E346FE40EF66E100E16
:1009D200F76E000EF86E110EE16E010EE26E110E50
:1009E200006E010E016EBEEC00F0110E356F010EAD
:1009F200366F100E376F000E386F96EC00F0280E2F
:100A0200336F000E346F26DD010E1E6E4C0E336FF7
:100A1200000E346F17C035F1000E366F376F386F26
:0A0A2200320E396FC6EC00F012002E
:100A2C00FF0E0001DD6FFF0EDE6FFF0EDF6FFF0E9E
:100A3C00E06FFF0EE16FFF0EE26F000EE36F000E32
:100A4C00E46FFF0EE96FFF0EEA6F000EEB6F000E06
:100A5C00EC6FFF0EE56FFF0EE66F000EE76F000EFA
:100A6C00E86FBA8A900EA66E958E959CA4AA03D0B8
:080A7C007ACF00F0FBD7120055
:100A84004B6A200E01010125E16E000E0221E26E87
:100A9400E66A210E0125E16E000E0221E26EE66A8D
:100AA400220E0125E16E000E0221E26E020EE66EB8
:020AB40012002E
:100AB600165239E04C0E0101336F000E346F1DC023
:100AC60035F1000E366F376F386F320E396FC6EC60
:100AD60000F0030E0001DC6F380E0101336F000ECB
:100AE600346FF50EF66E100EF76E000EF86E000EF1
:100AF600E16E010EE26E110E006E010E016EBEEC8D
:100B060000F0000E356F010E366F100E376F000EB7
:100B1600386F96EC00F0280E336F000E346F98DCB9
:080B2600010E1E6E166A12009A
:100B2E0010D0800E0101016F1AD0C00E016F17D0C8
:100B3E00940E016F14D0D40E016F11D0800E016F80
:100B4E000ED001010151010AECE00151020AEDE063
:100B5E000151030AEDE00151040AEDE0EFD7020561
:100B6E00006E0151002600C001F100C041F157ECAA
:100B7E0000F02790006B00510325E96E000E042152
:100B8E00EA6EEE520BE000510325E96E000E0421D1
:100B9E00EA6EEECF33F162DC002BEDD72780120028
:100BAE009398939A93909392939493968198819A13
:100BBE00819681948192819021EC00F021EC00F0DD
:100BCE0021EC00F08182818081881BEC00F08198FD
:100BDE0021EC00F081881BEC00F0819821EC00F0F4
:100BEE0081881BEC00F0819821EC00F081908188C7
:100BFE001BEC00F0819821EC00F081881BEC00F0DA
:100C0E0081988192818681881BEC00F0819821EC7D
:100C1E0000F08196818081881BEC00F08198819094
:100C2E0081881BEC00F0819821EC00F081881BEC90
:100C3E0000F08198818081881BEC00F0819821EC76
:100C4E0000F0819081881BEC00F081988186818470
:100C5E008182818081881BEC00F0819821EC00F06C
:040C6E0027801200C9
:100C7200600ED36E9B8C0F015D6B5C6B010E806E00
:100C8200816A826A836A846ABF0E926EC00E936E14
:100C9200810E946EB00E956E0E0E966E810ED56E0E
:100CA200630ED76EBF0ED66EF28EF28A7FDF280EEB
:100CB2000101016F000E026FE4DE050E0B6E0F0ED6
:100CC2000C6EF10E0D6E0D2EFED70C2EFCD70B2ED8
:100CD200FAD7808CCF0EAF6EAC84E6DDB986030EF8
:100CE2007C6E400E7B6EBA84A0DE4C0E0101016F59
:0E0CF200000E026F66DD020E0001DC6F1200C4
:100D00000001F06BF06B140EF05DD8B08CD0EEC02B
:100D1000F1F0EFC0F2F0070E006E000E016EF0C0B1
:100D200004F0000E056E2FEC00F0F1510026F25198
:100D30000122050E0024E96E000E0120EA6EEE503D
:100D4000000A6FE1EEC0F1F0EFC0F2F0070E006EA6
:100D5000000E016EF0C004F0000E056E2FEC00F0E6
:100D6000F1510026F2510122010E0024E96E000E1D
:100D70000120EA6EEECF05F0EECF06F0EECF07F0E1
:100D8000EECF08F08C0EEE25D96E000EEF21DA6E54
:100D9000DECF01F0DECF02F0DECF03F0DECF04F0D5
:100DA0000850041808E10750031805E1065002181E
:100DB00002E10550011835E1EEC0F1F0EFC0F2F0AC
:100DC000070E006E000E016EF0C004F0000E056EFE
:100DD0002FEC00F0F1510026F2510122060E002402
:100DE000E96E000E0120EA6EEE50000A1AE1EEC034
:100DF000F1F0EFC0F2F0070E006E000E016EF0C0D1
:100E000004F0000E056E2FEC00F0F1510026F251B7
:100E10000122060E0024E16E000E0120E26E010E9A
:080E2000E66EF02B70D7120002
:100E28000ED045DE1ED035DC1CD077DC1AD065DD4F
:100E380018D06CEC02F015D03BEC02F012D01E502A
:100E4800000AEFE01E50010AEEE01E50020AEDE033
:100E58001E50030AECE01E50040AEBE01E50050A7F
:040E6800EBE01200A9
:100E6C00200E0001EE25E96E000EEF21EA6EEE5029
:100E7C00010A2BE1010E0101016F026BEEC003F1BF
:100E8C00EFC004F14EDE210E0001EE25E96E000EDE
:100E9C00EF21EA6EEECF00F000520FE1020E0101DD
:100EAC00016F026B100E0001EE250101036F000EA5
:100EBC000001EF210101046F34DE200E0001EE254C
:100ECC00E16E000EEF21E26EE66A210EEE25E96E70
:100EDC00000EEF21EA6EEE5249E04B5231E0ED513B
:100EEC00000A2EE1F00E0101336F000E346F100E6C
:100EFC000001EE250101356F000E0001EF2101010B
:100F0C00366F100E376F000E386F96EC00F03E0EF9
:100F1C000001F06F3E0EF16F3E0EF26F3C0EFD6F56
:100F2C003C0EFE6F3C0EFF6F020E0101016F026B57
:100F3C00F00E036F000E046FF4DD010E0001ED6F77
:100F4C004B5214E1ED51000A11E0020E0101016F48
:100F5C00026B100E0001EE250101036F000E000163
:0E0F6C00EF210101046FDDDD0001ED6B1200CD
:100F7A008C0E0001EE25E96E000EEF21EA6EEECF2F
:100F8A0001F0EECF02F0EECF03F0EECF04F0045002
:100F9A00FF0A08E10350FF0A05E10250FF0A02E1D5
:100FAA000150FF0A23E08C0EEE25046E000EEF219D
:100FBA00056E04C0E9FF05C0EAFF010EEE24006ECB
:100FCA00000EEE20016E000EEE20026E000EEE20E4
:100FDA00036E04C0E1FF05C0E2FF00C0E6FF01C0E6
:100FEA00E6FF02C0E6FF03C0E6FF0AD08C0EEE253C
:100FFA00E16E000EEF21E26EE66AE66AE66AE66AEA
:02100A001200D2
:10100C00A5EC08F030DE225207E00001280EEE6F4E
:10101C00000EEF6F25DF226A215212E00001010E53
:10102C002326000E2422252226224C0EEE6F000EC3
:10103C00EF6F9DDF4C0EEE6F000EEF6F5BDE216AE3
:10104C0080BA02D0849001D0848080A214D083B660
:10105C0012D083864C0E0101336F000E346F040ED8
:10106C00356F000E366F376F386F010E396FC6EC67
:10107C0000F0010E166E01014C0E336F000E346F32
:10108C00010E356F64EC01F00052D8A48396C6DED5
:04109C00BAD7FFD7E9
:10114A0010EE16F0110E006E010E016E170EF66EFD
:0E115A00110EF76E000EF86EBEEC00F01200E3
:1010A00020202020496E76616C6964202020202059
:0110B000003F
:1010B100202020204F70656E6E696E6720202020F1
:0110C100002E
:1010C200202020204F70656E6E696E6720202020E0
:0110D200001D
:1010D30020202020436C6F73696E6720202020201E
:0110E300000C
:1010E400202020204F70656E6E696E6720202020BE
:0110F40000FB
:1010F500202020204F70656E6E696E6720202020AD
:0111050000E9
:1011060020202020496E76616C69642020202020F2
:0111160000D8
:0111170000D7
:0111180001D5
:0411190000000000D2
:01111D0014BD
:01111E000AC6
:01111F0000CF
:011120000AC4
:0111210000CD
:0111220000CC
:0111230000CB
:0411240000000000C7
:1011280020202020204F70656E656420202020201C
:0111380000B6
:101139002020202020436C6F73656420202020200C
:0111490000A5
:020000040030CA
:0E00000015187E7CFF8891FF0FC00FE00F40A7
:00000001FF
