:0400000042EF13F0C8
:020006001200E6
:1000080000C018F001C017F002C016F003C015F0C8
:10001800E1CF1BF0E2CF1CF0E9CF19F0EACF1AF0DC
:10002800F2A410D0F2AA0ED0010E1E6E382A190EB4
:10003800385C03E3010E276E386A630ED76EBF0E75
:10004800D66EF2949DAA09D09EAA07D0550E020139
:10005800526F000E536F98EC0EF018C000F017C0E6
:1000680001F016C002F015C003F019C0E9FF1AC06C
:0C007800EAFF1BC0E1FF1CC0E2FF11000A
:100084003A0E0C6E230E0D6E0D2EFED70C2EFCD7E1
:02009400120058
:0A009600850E0D6E0D2EFED7120030
:0C00A000020E0D6E0D2EFED700001200A7
:1000AC00086A080E0C6E003408360450085ED8B08E
:0E00BC0002D00826D89000360C2EF5D7120080
:1000CA00020151BF02D0819601D0818651BD02D072
:1000DA00819401D0818451BB02D0819201D0818266
:1000EA0051B902D0819001D0818000016DB102D056
:1000FA00818A01D0819A8188CEDF8198020151B725
:10010A0002D0819601D0818651B502D0819401D066
:10011A00818451B302D0819201D0818251B102D03F
:10012A00819001D0818000016DB102D0818A01D015
:10013A00819A8188B0DF81986DA102D09EDF01D0BB
:04014A00A5DF12001B
:10014E004DC204F04EC205F04BC202F04CC203F099
:10015E004FC200F050C201F0010E02014F5F000EBF
:10016E00505B005001100FE004C0E9FF05C0EAFF2C
:10017E0002C0E1FF03C0E2FFEECFE6FF024A032A10
:10018E00044A052AE5D74BC200F04CC201F012001A
:0E019E0000016D914BC251F291DF6D81120094
:1001AC0002014E6B030E4E5D0AE24E514C25E16E80
:1001BC00000E4D21E26E200EE66E4E2BF3D74E5103
:1001CC004C25E16E000E4D21E26EE66A4E074E5153
:1001DC004C254F6F000E4D21506F0A0E046E4BC212
:1001EC0000F05EDF08C000F0300E00264FC2E1FFC9
:1001FC0050C2E2FF00C0E6FF0A0E046E4BC200F0D4
:10020C004FDF00C04BF20050000A01E102D04E0754
:04021C00DED7120017
:100220000900F5CFE6FF0006FBE10106F9E1120047
:100230007F9C41C275FF40C274FF7F9E7F8073CF59
:0402400000F01200B8
:100244000B6A0A6A096A00500402F4CF09F0F3CF7A
:1002540008F001500502F4CF0BF0F3CF0AF0005080
:100264000502F3500926F4500A22E86A0B220150D1
:100274000402F3500926F4500A22E86A0B2208C04B
:1002840000F009C001F00AC002F00BC003F0120034
:10029400086A096A100E0C6E0134083609360450D7
:1002A400085E0550D8A0053C095ED8B007D00450BC
:1002B40008260550D8B0053C0926D89000360136EA
:0602C4000C2EEAD7120027
:0C02CA00BAB201D0FDD740C279FF12008B
:1002D60010D0800E0201406F1AD0C00E406F17D0AA
:1002E600940E406F14D0D40E406F11D0800E406F24
:1002F6000ED002014051010AECE04051020AEDE045
:100306004051030AEDE04051040AEDE0EFD7410504
:10031600006E4051002600C040F200C051F2D2DE0D
:100326006D910201446B44514225E96E000E432152
:10033600EA6EEE520CE044514225E96E000E43216E
:10034600EA6EEECF4BF228DF0201442BECD7000118
:040356006D811200A3
:10035A0094928292010E0001706F6F6B40C26EF030
:10036A0002014051960A04E04051A90A01E006D070
:0E037A00010E401900016E6FFF0E6F6F120032
:100388007FA202D00000FCD77F9C41C275FF40C20B
:1003980074FF42C273FF7F9E7F84F2CF00F0F29E0B
:1003A800550E7E6EAA0E7E6E7F8200BE02D0F29E31
:0803B80001D0F28E7F941200C7
:1003C00040C24BF202014B334B9F41C24CF242C23E
:1003D0004DF2ECDE010E4015016E0150010A17E1ED
:1003E000030E41254B6F000E42214C6F2E0E436FC2
:1003F000350E446F730E456F466B430E4D6F020E04
:100400004E6F040E4F6F000E506FA1DE16D0030E1C
:1004100041254B6F000E42214C6F2E0E476F300E60
:10042000486F730E496F4A6B470E4D6F020E4E6F49
:0C043000040E4F6F000E506F8ADE1200A9
:10043C0040C2C9FFC7B002D00000FCD7C9CF00F042
:02044C0012009C
:0E044E00ACB202D00000FCD740C2ADFF1200DD
:0A045C00000EACB2010E006E12009B
:0A046600000E9EBA010E006E120097
:10047000AECF01F0ABA202D0AB98AB8801C000F0C8
:02048000120068
:0A048200000EBAB2010E006E120067
:0A048C00000EA4BA010E006E12006B
:100496007ACF01F0A6A202D0A698A68801C000F0E5
:0204A600120042
:1004A8000101B16B0A0EB15D4DE2AEC1B2F1AFC14F
:1004B800B3F1B1C100F0000E016E070E046E000E1C
:1004C800056EBCDEB2510026B3510122050E002490
:1004D800E96E000E0120EA6EEE50000A31E1AEC16D
:1004E800B2F1AFC1B3F1B1C100F0000E016E070E59
:1004F800046E000E056EA2DE0050B225E96E0150B2
:10050800B321EA6EEECF01F00150B01919E1AEC186
:10051800B2F1AFC1B3F1B1C100F0000E016E070E28
:10052800046E000E056E8ADEB2510026B351012218
:10053800050E0024E16E000E0120E26E010EE66E4B
:06054800B12BB0D7120038
:10054E000201406B416B3FC042F217DF010E020108
:10055E00406F000E416F40C042F20FDF020E0201EB
:10056E00406F000E416F3EC042F207DF030E0201E4
:10057E00406F000E416F3CC042F2FFDE040E0201DE
:10058E00406F000E416F3DC042F2F7DE3DC040F2BB
:04059E00DDDE12008C
:1005A2000101B66BB76BB86BB96B460EAE25E96E3F
:1005B200000EAF21EA6EB051EE24B66FB151EE20BB
:1005C200B76FB251EE20B86FB351EE20B96FB56B71
:1005D2000A0EB55DD8B081D0AEC1BAF1AFC1BBF1E0
:1005E200B5C100F0000E016E070E046E000E056E1E
:1005F20028DEBA510026BB510122050E0024E96E05
:10060200000E0120EA6EEE50010A65E1AEC1BAF1B8
:10061200AFC1BBF1B5C100F0000E016E070E046E52
:10062200000E056E0EDE0050BA25E16E0150BB21B0
:10063200E26EB4C1E6FFAEC1BAF1AFC1BBF1B5C162
:1006420000F0000E016E070E046E000E056EF9DD5D
:10065200BA510026BB510122010E0024E16E000EA8
:100662000120E26EB6C1E6FFB7C1E6FFB8C1E6FF00
:10067200B9C1E6FFAEC1BAF1AFC1BBF1B5C100F07D
:10068200000E016E070E046E000E056EDADDBA5121
:100692000026BB510122050E0024E16E000E01204E
:1006A200E26EE66AAEC1BAF1AFC1BBF1B5C100F00C
:1006B200000E016E070E046E000E056EC2DDBA5109
:1006C2000026BB510122060E0024E16E000E01201D
:0C06D200E26EE66A02D0B52B7BD7120066
:1006DE000B6A0A6A096A086A0E6A033408360450FD
:1006EE00085E0550D8A0053C095E0650D8A0063C11
:1006FE000A5E0750D8A0073C0B5EE86AD8A0010E30
:10070E000E5E0336070E0C6E0334083609360A36B3
:10071E000B360E36045003A012D0085E0550D8A03A
:10072E00053C095E0650D8A0063C0A5E0750D8A0CC
:10073E00073C0B5EE86AD8A0010E0E5E11D00826AB
:10074E000550D8B0053C09260650D8B0063C0A26FE
:10075E000750D8B0073C0B26E86AD8B0010E0E261B
:10076E0003360C2ED1D70234083609360A360B362C
:10077E000E36045003A012D0085E0550D8A0053CDA
:10078E00095E0650D8A0063C0A5E0750D8A0073C6A
:10079E000B5EE86AD8A0010E0E5E11D00826055039
:1007AE00D8B0053C09260650D8B0063C0A2607509C
:1007BE00D8B0073C0B26E86AD8B0010E0E260236DA
:1007CE00070E0C6E0234083609360A360B360E3614
:1007DE00045002A012D0085E0550D8A0053C095E58
:1007EE000650D8A0063C0A5E0750D8A0073C0B5E08
:1007FE00E86AD8A0010E0E5E11D008260550D8B0BA
:10080E00053C09260650D8B0063C0A260750D8B03B
:10081E00073C0B26E86AD8B0010E0E2602360C2EC7
:10082E00D1D70134083609360A360B360E36045047
:10083E0002A012D0085E0550D8A0053C095E0650F5
:10084E00D8A0063C0A5E0750D8A0073C0B5EE86AAB
:10085E00D8A0010E0E5E11D008260550D8B0053C6A
:10086E0009260650D8B0063C0A260750D8B0073CD9
:10087E000B26E86AD8B0010E0E260136070E0C6E56
:10088E000134083609360A360B360E36045001A0EE
:10089E0012D0085E0550D8A0053C095E0650D8A0BF
:1008AE00063C0A5E0750D8A0073C0B5EE86AD8A04B
:1008BE00010E0E5E11D008260550D8B0053C092653
:1008CE000650D8B0063C0A260750D8B0073C0B2677
:1008DE00E86AD8B0010E0E2601360C2ED1D70034A0
:1008EE00083609360A360B360E36045001A012D0E1
:1008FE00085E0550D8A0053C095E0650D8A0063CFF
:10090E000A5E0750D8A0073C0B5EE86AD8A0010E1D
:10091E000E5E11D008260550D8B0053C09260650AB
:10092E00D8B0063C0A260750D8B0073C0B26E86A1A
:10093E00D8B0010E0E260036070E0C6E00340836A7
:10094E0009360A360B360E36045000A012D0085E59
:10095E000550D8A0053C095E0650D8A0063C0A5E9C
:10096E000750D8A0073C0B5EE86AD8A0010E0E5EB9
:10097E0011D008260550D8B0053C09260650D8B02F
:10098E00063C0A260750D8B0073C0B26E86AD8B0BA
:10099E00010E0E2600360C2ED1D700B00ED004500C
:1009AE0008260550D8B0053C09260650D8B0063C9E
:0C09BE000A260750D8B0073C0B26120098
:1009CA00F250026EF29E0500FF6A0150FE6E005060
:0809DA00FD6E02BEF28E120058
:1009E2000101B26B050EB25D0AE2B251B025E16EB1
:1009F200000EB121E26E200EE66EB22BF3D7B25199
:100A0200B025E16E000EB121E26EE66AB207B25184
:100A1200B025B36F000EB121B46F0A0E046E000E42
:100A2200056EAEC100F0AFC101F033DC08C000F0CA
:100A320009C001F0300E0026B3C1E1FFB4C1E2FFEC
:100A420000C0E6FF0A0E046E000E056EAEC100F095
:100A5200AFC101F01EDC00C0AEF101C0AFF1000E6B
:100A6200011802E1000E001801E102D0B207CFD74F
:020A7200120070
:100A74000101B16BB26BB16B0A0EB15D6EE2AEC136
:100A8400B3F1AFC1B4F1B1C100F0000E016E070EB5
:100A9400046E000E056E22EC01F0B3510026B45131
:100AA4000122050E0024E96E000E0120EA6EEE50CC
:100AB400000A51E1AEC1B3F1AFC1B4F1B1C100F06C
:100AC400000E016E070E046E000E056E22EC01F09E
:100AD400B3510026B4510122060E0024E96E000E23
:100AE4000120EA6EEE50010A36E1AEC1B3F1AFC1A6
:100AF400B4F1B1C100F0000E016E070E046E000ED9
:100B0400056E22EC01F00050B325E96E0150B421CA
:100B1400EA6EEECF01F00150B0191DE1AEC1B3F1A0
:100B2400AFC1B4F1B1C100F0000E016E070E046E46
:100B3400000E056E22EC01F0B3510026B4510122DF
:100B4400050E0024E16E000E0120E26E010EE66E39
:100B5400010EB26F02D0B12B8FD7B2C100F01200D8
:100B64000201406B416B18EC01F000C03FF0010E34
:100B7400406F000E416F18EC01F000C040F0020E0F
:100B8400406F000E416F18EC01F000C03EF0030E00
:100B9400406F000E416F18EC01F000C03CF0040EF1
:100BA400406F000E416F18EC01F000C03DF01200E0
:100BB400360E02014B6F020E4C6F7E0EF66E270E40
:100BC400F76E000EF86EAE0EE16E010EE26E110EBF
:100BD400006E010E016E10EC01F0AE0E4D6F010EB1
:100BE4004E6F0A0E4F6F000E506FA7EC00F0010E0F
:100BF400516F65EC00F039D1010E0201406F010E16
:100C0400416F8F0EF66E270EF76E000EF86EBF0E54
:100C1400E16E010EE26E110E006E010E016E10EC1B
:100C240001F0BF0E426F010E436F6BEC01F03FC049
:100C340040F2360E0201416F020E426FE0EC01F009
:100C4400020E406F050E416F360E426F020E436F67
:100C54006BEC01F024D1010E0201406F010E416FD3
:100C6400A00EF66E270EF76E000EF86ED00EE16E33
:100C7400010EE26E110E006E010E016E10EC01F019
:100C8400D00E426F010E436F6BEC01F040C040F296
:100C9400360E0201416F020E426FE0EC01F0020ECB
:100CA400406F050E416F360E426F020E436F6BECC0
:100CB40001F0F5D0010E0201406F010E416FB10E3B
:100CC400F66E270EF76E000EF86EE10EE16E010E61
:100CD400E26E110E006E010E016E10EC01F0E10ED9
:100CE400426F010E436F6BEC01F03EC040F2360ED2
:100CF4000201416F020E426FE0EC01F0020E406F00
:100D0400050E416F360E426F020E436F6BEC01F01D
:100D1400C6D0010E0201406F010E416FC20EF66E85
:100D2400270EF76E000EF86EF20EE16E010EE26E03
:100D3400110E006E010E016E10EC01F0F20E426F06
:100D4400010E436F6BEC01F03CC040F2360E020121
:100D5400416F020E426FE0EC01F0020E406F050E8F
:100D6400416F360E426F020E436F6BEC01F097D069
:100D7400010E0201406F010E416FD30EF66E270E75
:100D8400F76E000EF86E030EE16E020EE26E110EA7
:100D9400006E010E016E10EC01F0030E426F020EA4
:100DA400436F6BEC01F03DC04BF2360E02014C6F09
:100DB400020E4D6FD6EC00F0020E406F050E416F2F
:100DC400360E426F020E436F6BEC01F068D0010ED9
:100DD4000201406F010E416FE40EF66E270EF76EAE
:100DE400000EF86E140EE16E020EE26E110E006E2D
:100DF400010E016E10EC01F0140E426F020E436FEF
:100E04006BEC01F0020E0201406F010E416F30C025
:100E140042F231C043F26BEC01F041D0010E020109
:100E2400406F010E416FF50EF66E270EF76E000E41
:100E3400F86E250EE16E020EE26E110E006E010ECA
:100E4400016E10EC01F0250E426F020E436F6BEC45
:100E540001F0020E0201406F010E416F30C042F2F8
:100E640031C043F26BEC01F01AD02F50000AD8B411
:100E7400C3D62F50010AD8B4EED62F50020AD8B4E4
:100E840019D72F50030AD8B444D72F50040AD8B422
:100E94006FD72F50050A9BE02F50060ABFE01200BF
:100EA400CA0E0001756F020E766F400E776F020E48
:100EB400786F960E716F040E726F000E736F000ED2
:100EC400746F8C0E656F040E666F000E676F000EF4
:100ED400686F820E796F040E7A6F000E7B6F000EBE
:100EE4007C6FBA8A900EA66E958E959CA4AA03D0A8
:080EF4007ACF00F0FBD71200D9
:100EFC007BC171F07CC172F07DC173F07EC174F066
:100F0C007FC175F080C176F081C177F082C178F035
:100F1C0083C165F084C166F085C167F086C168F055
:100F2C0087C179F088C17AF089C17BF08AC17CF0E5
:020F3C001200A1
:100F3E0001017D6B0A0E7D5D66E27BC17EF17CC197
:100F4E007FF17DC100F0000E016E070E046E000EE3
:100F5E00056E22EC01F000507E25E16E01507F21DE
:100F6E00E26EE66A7BC17EF17CC17FF17DC100F04D
:100F7E00000E016E070E046E000E056E22EC01F0DF
:100F8E007E5100267F510122010E0024E16E000EDB
:100F9E000120E26EE66AE66AE66AE66A7BC17EF1E7
:100FAE007CC17FF17DC100F0000E016E070E046E54
:100FBE00000E056E22EC01F07E5100267F510122BB
:100FCE00050E0024E16E000E0120E26E010EE66EAB
:100FDE007BC17EF17CC17FF17DC100F0000E016E00
:100FEE00070E046E000E056E22EC01F07E510026F7
:100FFE007F510122060E0024E16E000E0120E26EEA
:10100E00E66A7D2B97D7460E7B25E16E000E7C217E
:0C101E00E26EE66AE66AE66AE66A120024
:10102A009398939A93909392939493968198819A92
:10103A00819681948192819042EC00F042EC00F01A
:10104A0042EC00F081828180818850EC00F0819826
:10105A0042EC00F0818850EC00F0819842EC00F0FC
:10106A00818850EC00F0819842EC00F081908188F0
:10107A0050EC00F0819842EC00F0818850EC00F0CE
:10108A00819881928186818850EC00F0819842ECA7
:10109A0000F081968180818850EC00F081988190DF
:1010AA00818850EC00F0819842EC00F0818850EC85
:1010BA0000F081988180818850EC00F0819842ECA0
:1010CA0000F08190818850EC00F0819881868184BB
:1010DA0081828180818850EC00F0819842EC00F096
:0610EA0000016D811200FF
:1010F0001FC005F020C006F021C007F022C008F094
:101100003250055E3350065A3450075A3550085A4B
:1011100005C001F006C002F007C003F008C004F0EB
:101120000432033202320132049E01C07BF102C05C
:101130007CF103C07DF104C07EF10450000164190C
:1011400008E10350631905E10250621902E1015000
:101150006119D8B4DBD07BC161F07CC162F07DC184
:1011600063F07EC164F03C0E046E000E056E066EE8
:10117000076E7BC100F07CC101F07DC102F07EC131
:1011800003F06FEC03F008C000F009C001F00AC0E2
:1011900002F00BC003F000C080F13C0E046E000EA4
:1011A000056E066E076E7BC100F07CC101F07DC14B
:1011B00002F07EC103F06FEC03F000C07BF101C0D0
:1011C0007CF102C07DF103C07EF13C0E046E000E86
:1011D000056E066E076E6FEC03F008C000F009C0E4
:1011E00001F00AC002F00BC003F000C07FF13C0E1A
:1011F000046E000E056E066E076E7BC100F07CC1AA
:1012000001F07DC102F07EC103F06FEC03F000C07D
:10121000AEF101C0AFF1830E0101B06F010EB16FED
:10122000F1EC04F07FC14BF2890E02014C6F010E0C
:101230004D6FD6EC00F080C14BF28D0E4C6F010E5D
:101240004D6FD6EC00F0810E4B6F010E4C6F4C0EC3
:101250000101926F430E936F3A0E946F956B920E4D
:1012600002014D6F010E4E6F030E4F6F000E506F57
:10127000A7EC00F0880E4B6F010E4C6F480E010179
:10128000966F200E976F986B960E02014D6F010EB0
:101290004E6F020E4F6F000E506FA7EC00F08C0ED9
:1012A0004B6F010E4C6F4D0E0101996F200E9A6F1E
:1012B0009B6B990E02014D6F010E4E6F020E4F6F28
:1012C000000E506FA7EC00F0900E4B6F010E4C6FAC
:1012D000530E01019C6F200E9D6F9E6B9C0E0201B0
:1012E0004D6F010E4E6F020E4F6F000E506FA7EC48
:1012F00000F00101916B010E0201406F010E416F80
:0E130000810E426F010E436F6BEC01F0120084
:08130E0052DC020E536E1200C6
:101316007E0E0101AE6F000EAF6F360EB06F3AEC67
:1013260005F0005225E0020E00017D6F5250000AC2
:101336001EE15350000A1BE1020E0201406F010E2E
:10134600416FB50EF66E280EF76E000EF86E7B0E28
:10135600E16E010EE26E110E006E010E016E10ECD2
:1013660001F07B0E426F010E436F6BEC01F03B6A9E
:02137600120063
:1013780010D0800E01017B6F1AD0C00E7B6F17D082
:10138800940E7B6F14D0D40E7B6F11D0800E7B6FC0
:101398000ED001017B51010AECE07B51020AEDE01D
:1013A8007B51030AEDE07B51040AEDE0EFD77C05A1
:1013B800006E7B51002600C07BF100016D8100C0EA
:1013C80051F265EC00F06D917DC151F265EC00F0D1
:0413D8006D81120011
:1013DC004E0E0001756F040E766F400E776F020E85
:1013EC00786F700E716F040E726F000E736F000EBB
:1013FC00746F660E656F040E666F000E676F000EDD
:10140C00686F5C0E796F040E7A6F000E7B6F000EA6
:10141C007C6FAC8A900EAB6E948E949C9EAA03D07B
:08142C00AECF00F0FBD7120067
:101434007E0E0101AE6F000EAF6F350EB06F3AEC49
:1014440005F000523AE000017D6B5250000A1EE1A3
:101454005350000A1BE1020E0201406F010E416F5E
:101464003E0EF66E280EF76E000EF86E7B0EE16EE1
:10147400010EE26E110E006E010E016E10EC01F011
:101484007B0E426F010E436F6BEC01F0050E3B6E59
:101494007E0E0101AE6F000EAF6F3EC0B0F1000EC4
:1014A400B16FB037B137B091000EB1BFFF0EB26F5C
:1014B400B36F360EB46FD1EC02F082B04FD07E0E13
:1014C400AE6F000EAF6F350EB06F54EC02F07E0EAF
:1014D400AE6F000EAF6F360EB06F54EC02F0030E19
:1014E40000017D6F5250000A1EE15350000A1BE1B7
:1014F400020E0201406F010E416F4F0EF66E280E70
:10150400F76E000EF86E8C0EE16E010EE26E110E97
:10151400006E010E016E10EC01F08C0E426F010E94
:10152400436F6BEC01F0010E3B6E7E0E0101AE6F5A
:10153400000EAF6F1FC0B0F120C0B1F121C0B2F1F5
:1015440022C0B3F12350B05F2450B15B2550B25B8D
:101554002650B35B320EB46FD1EC02F0545250E01B
:101564007E0EAE6F000EAF6F350EB06F54EC02F00E
:101574007E0EAE6F000EAF6F360EB06F54EC02F0FD
:10158400030E00017D6F5250000A1EE15350000A01
:101594001BE1020E0201406F010E416F600EF66EF8
:1015A400280EF76E000EF86E9D0EE16E010EE26ECF
:1015B400110E006E010E016E10EC01F09D0E426FD3
:1015C400010E436F6BEC01F0010E3B6E7E0E0101C8
:1015D400AE6F000EAF6F1FC0B0F120C0B1F121C0DB
:1015E400B2F122C0B3F12350B05F2450B15B255057
:1015F400B25B2650B35B320EB46FD1EC02F0546A86
:021604001200D2
:101606006EC081F100016F5304E0010E6E190101F5
:10161600816F010182827D05806F77C0E1FF78C00E
:10162600E2FF960EE66E75C000F076C001F0E5ECBE
:1016360004F001018151960A04E08151A90A01E0F2
:1016460002D081717D8D77C0E1FF78C0E2FF81C154
:10165600E6FF75C000F076C001F0E5EC04F001018C
:101666007E6B7E51805D32E37E517B25E96E000EF6
:101676007C21EA6EEECF01F001C082F10150960A9C
:1016860004E08251A90A01E01FD07E517B25016E3C
:10169600000E7C21026E01C0E9FF02C0EAFF010EC6
:1016A600EE18006E01C0E1FF02C0E2FF00C0E6FFD7
:1016B6007EC101F0040E006E015004E00036009079
:1016C600FF0FFBD700507D137E2BCBD777C0E1FFF2
:1016D60078C0E2FF7DC1E6FF75C000F076C001F07C
:1016E600E5EC04F0010181517D197F6F7E6B7E511F
:1016F600805D1FE37E517B25006E000E7C21016E0E
:1017060000C0D9FF01C0DAFFDE507F1B77C0E1FFC2
:1017160078C0E2FF00C0E9FF01C0EAFFEECFE6FFB6
:1017260075C000F076C001F0E5EC04F001017E2BF7
:10173600DED77F1D016E01C07FF10150960A04E0DD
:101746007F51A90A01E001D07F2B77C0E1FF78C065
:10175600E2FF7FC1E6FF75C000F076C001F0E5EC60
:1017660004F077C0E1FF78C0E2FFA90EE66E75C00F
:1017760000F076C001F0E5EC04F079C000F07AC024
:1017860001F0E5EC04F00050000A01E1F6D7829280
:0217960012003F
:0217980012003D
:10179A007E0E0101AE6F000EAF6F340EB06F3AECE1
:1017AA0005F0005242E0040E00017D6F5250000A1B
:1017BA001EE15350000A1BE1020E0201406F010EA6
:1017CA00416F930EF66E280EF76E000EF86E7B0EC2
:1017DA00E16E010EE26E110E006E010E016E10EC4A
:1017EA0001F07B0E426F010E436F6BEC01F0040EA9
:1017FA003B6E7E0E0101AE6F000EAF6F3EC000F071
:10180A00000E016E0036013600900050405CB06F49
:10181A0001C0B1F1000EB157000EB1BFFF0EB26F99
:10182A00B36F350EB46FD1EC02F082B045D07E0EA4
:10183A00AE6F000EAF6F350EB06F54EC02F07E0E35
:10184A00AE6F000EAF6F340EB06F54EC02F0030EA1
:10185A0000017D6F5250000A1EE15350000A1BE13D
:10186A00020E0201406F010E416FA40EF66E280EA1
:10187A00F76E000EF86E8C0EE16E010EE26E110E1E
:10188A00006E010E016E10EC01F08C0E426F010E1B
:10189A00436F6BEC01F0010E3B6E7E0E0101AE6FE1
:1018AA00000EAF6F3EC0B0F1000EB16FB26FB36FF2
:0A18BA00320EB46FD1EC02F0120000
:1018C4007E0E0101AE6F000EAF6F330EB06F3AECB7
:1018D40005F0005247E000017D6B5250000A1EE102
:1018E4005350000A1BE1020E0201406F010E416FCA
:1018F400D70EF66E280EF76E000EF86E7B0EE16EB4
:10190400010EE26E110E006E010E016E10EC01F07C
:101914007B0E426F010E436F6BEC01F0030E3B6EC6
:101924007E0E0101AE6F000EAF6F3EC0B0F1000E2F
:10193400B16FB037B137B091000EB1BFFF0EB26FC7
:10194400B36F340EB46FD1EC02F03E501F24236EFB
:10195400000E2020246E000E2120256E000E222071
:06196400266E546A120019
:10196A00010E2E6E7BD02CA206D0FF0E3F5C03E246
:10197A003F2ADAEC05F02CA406D03F50000803E217
:10198A003F06DAEC05F02CA002D0010E536E7BD094
:10199A002CA206D0FF0E405C03E2402ADAEC05F0E6
:1019AA002CA406D04050000803E24006DAEC05F009
:1019BA002CA002D0010E536E66D02CA206D0FF0EC8
:1019CA003E5C03E23E2ADAEC05F02CA406D03E5037
:1019DA00000803E23E06DAEC05F02CA002D0010E64
:1019EA00536E51D02CA206D0FF0E3C5C03E23C2A77
:1019FA00DAEC05F02CA406D03C50000803E23C06C1
:101A0A00DAEC05F02CA002D0010E536E3CD02CA2C9
:101A1A0006D0FF0E3D5C03E23D2ADAEC05F02CA469
:101A2A0006D03D50000803E23D06DAEC05F02CA092
:101A3A0002D0010E536E27D02CA001D0536A2E6A11
:101A4A00A7EC02F0536A140E2D6E1DD02CA001D003
:101A5A00536A2E6AB2EC05F0536A15D02F50000A69
:101A6A0082E02F50010A94E02F50020AA6E02F507C
:101A7A00030AB8E02F50040ACAE02F50050ADCE036
:081A8A002F50060AE3E01200F0
:101A92002E6A2CA409D02F50000802E22F0602D091
:101AA200060E2F6E010E536E2CA208D0060E2F5C6E
:101AB20002E22F2A01D02F6A010E536E2CA002D00F
:061AC200030E536E12003A
:101AC8007E0E0101AE6F000EAF6F320EB06F3AECB2
:101AD80005F000523AE0010E00017D6F5250000AF5
:101AE8001EE15350000A1BE1020E0201406F010E75
:101AF800416FE80EF66E280EF76E000EF86E7B0E3C
:101B0800E16E010EE26E110E006E010E016E10EC18
:101B180001F07B0E426F010E436F6BEC01F0020E79
:101B28003B6E7E0E0101AE6F000EAF6F3E503C5C07
:101B3800B06FB16B000EB15B000EB1BFFF0EB26F9C
:0C1B4800B36F330EB46FD1EC02F012004A
:101B5400545236E07E0E0101AE6F000EAF6F3FC0EF
:101B6400B0F1000EB16FB26FB36F320EB46FD1EC3F
:101B740002F0030E00017D6F5250000A1EE1535023
:101B8400000A1BE1020E0201406F010E416FC60EF6
:101B9400F66E280EF76E000EF86E7B0EE16E010EE7
:101BA400E26E110E006E010E016E10EC01F07B0E60
:101BB400426F010E436F6BEC01F0010E3B6E546AF1
:021BC40012000D
:101BC6007E0E0101AE6F000EAF6F040EB06F3AECE1
:101BD60005F0005201E083867E0EAE6F000EAF6FF9
:101BE600050EB06F3AEC05F0005201E083967E0ECA
:101BF600AE6F000EAF6F060EB06F3AEC05F00052F6
:101C060001E083847E0EAE6F000EAF6F070EB06FDD
:101C16003AEC05F0005201E083947E0EAE6F000EA2
:101C2600AF6F080EB06F3AEC05F0005201E0838208
:101C36007E0EAE6F000EAF6F090EB06F3AEC05F078
:101C4600005201E083927E0EAE6F000EAF6F010E62
:101C5600B06F3AEC05F0005201E0366A7E0EAE6FC8
:101C6600000EAF6F020EB06F3AEC05F0005201E0C5
:101C7600376A00017D51020A16E1365214E03752E6
:101C860012E187DD010E376E7E0E0101AE6F000E8A
:101C9600AF6F060EB06F000EB16FB26FB36F020E6C
:101CA600B46FD1EC02F000017D51040A17E13652FF
:101CB60015E0375213E103EC00F0010E376E7E0E8D
:101CC6000101AE6F000EAF6F060EB06F000EB16F62
:0E1CD600B26FB36F020EB46FD1EC02F01200C9
:101CE4002850000801E228062950000801E22906CC
:021CF4001200DC
:101CF6000FD02CA003D0010E536E2F6A78EC08F09B
:101D060013D087EC09F010D0C1DE0ED02BDE0CD03C
:101D16005350000AEEE05350010AF3E05350020A12
:0A1D2600F3E05350030AF2E012004C
:101D300065C000F066C001F0E5EC04F0005201E17E
:101D40002BD171C000F072C001F0E5EC04F000C0CE
:101D50006AF006D100016A51960A03E1020E706F23
:101D6000696B1AD16A516E1904E06A51320A01E0B6
:101D700005D0030E706F6A51691B02D0010E706F9F
:101D80000BD16F5309E0400E6A15016E0150000A35
:101D900003E1010E706F00D16AAF13D0040E706FB3
:101DA0006AC060F06A51691B030E6A15016E01C0BA
:101DB0006BF00150000A02E1050E706F010E6C6FAE
:101DC0000CD0050E02015225E16E000E5321E26E89
:101DD000FF0EE66E010E0001706FDED06A51A90A97
:101DE0000DE1050E02015225E16E000E5321E26E57
:101DF000FF0EE66E010E0001706FCED06C516B5D70
:101E0000006E016A000E015A0050011013E06C05CB
:101E1000006E016A000E015A005002015225E16E67
:101E200001505321E26E6AC0E6FF00016A51691B4E
:101E30006C2B13D06C05006E016A000E015A005025
:101E400002015225E16E01505321E26E6AC0E6FFA5
:101E5000050E0001706F6A51691B9ED0691D016EED
:101E600001C069F00150960A04E06951A90A01E035
:101E700001D0692B69516A1903E1060E706F0CD00D
:101E8000050E02015225E16E000E5321E26EFF0E97
:101E9000E66E010E0001706F7FD06A51A90A43E11E
:101EA000010E706F040E02015225E16E000E5321E7
:101EB000E26EFF0EE66E030E5225E16E000E532118
:101EC000E26E6BC0E6FF010E00016C6F6C516B5D42
:101ED00029E36CC001F0020E006E015004E00036F0
:101EE0000090FF0FFBD76051001619E06C05006EE3
:101EF000016A000E015A005002015225026E015083
:101F00005321036E02C0E9FF03C0EAFF010EEE1881
:101F1000006E02C0E1FF03C0E2FF00C0E6FF000167
:101F20006C2BD4D70CD0050E02015225E16E000EA9
:101F30005321E26EFF0EE66E010E0001706F2CD091
:101F4000050E02015225E16E000E5321E26EFF0ED6
:101F5000E66E010E0001706F1FD0010E706F1CD075
:101F600000017051010AD8B4F5D67051020AD8B4F4
:101F7000F9D67051030AD8B404D77051040AD8B402
:101F80002DD77051050AD8B469D77051060A85E07B
:0A1F90007051070AD5E0E1D71200F6
:101F9A000101766B776B83BA02D0768101D0769194
:101FAA0080BE02D0768301D0769383B802D076853C
:101FBA0001D07695CED07651000A0DE02850000A5D
:101FCA000AE176C177F1010E286E640E296E010EC0
:101FDA002B6E76C139F0CFD02850000A08E176512D
:101FEA00000A05E1776B396A010E286E2B6A2850C0
:101FFA00000A0EE1765139180BE12950000A08E16E
:10200A0076C177F1020E2B6E190E296E0A0E3A6E00
:10201A002850000A0CE17651391809E07651000A75
:10202A0006E076C177F176C139F0010E286EA3D0A9
:10203A00765139180BE12950000A08E13A50000894
:10204A0005E276C177F1190E296E3A0676513918EA
:10205A000EE12950000A0BE13A50000A08E176C164
:10206A0077F10F0E296E0A0E3A6E030E2B6E765119
:10207A0039180DE07651000A0AE076C177F176C187
:10208A0039F0010E286E640E296E010E2B6E765100
:10209A00000A05E1776B396A010E286E2B6A6BD04C
:1020AA00765139180BE12950000A08E13A50000824
:1020BA0005E276C177F10F0E296E3A067651391884
:1020CA000CE12950000A09E13A50000A06E176C1FA
:1020DA0077F1080E296E040E2B6E765139180DE031
:1020EA007651000A0AE076C177F176C139F0010E1D
:1020FA00286E640E296E010E2B6E7651000A05E1D8
:10210A00776B396A010E286E2B6A35D076513918E9
:10211A0007E12950000A04E176C177F1080E296E19
:10212A00765139180DE07651000A0AE076C177F146
:10213A0076C139F0010E286E640E296E010E2B6EDF
:10214A007651000A05E1776B396A010E286E2B6A0F
:10215A0012D02B50000AD8B42ED72B50010AD8B46B
:10216A003BD72B50020AD8B463D72B50030A98E006
:0C217A002B50040ACBE077C100F01200EB
:10218600600ED36E9B8C0F015D6B5C6B806A816AFF
:10219600826A836A846ABF0E926EC00E936E810E47
:1021A600946EB00E956E0E0E966E810ED56E630E03
:1021B600D76EBF0ED66EF28EF28A15EC08F00C0EB4
:1021C6000201516F65EC00F0150E0B6E4B0E0C6E96
:1021D600BE0E0D6E0D2EFED70C2EFCD70B2EFAD78B
:1021E6000000808CCF0EAF6EAC84EEEC09F0CF0E03
:1021F6007B6EBA8452EC07F09E9A9D8A9F8AF28C77
:10220600700E01017B6F040E7C6F000E7D6F000E59
:102216007E6F4E0E7F6F040E806F400E816F020E32
:10222600826F660E836F040E846F000E856F000E3C
:10223600866F5C0E876F040E886F000E896F000E26
:102246008A6F7EEC07F07E0E7B6F000E7C6F9FEC34
:1022560007F0020E00017D6FB2EC05F03DC040F2C2
:06226600ADEC01F01200D6
:10226C0010D072DC20D02ADC1ED062EC0CF01BD01B
:10227C00CDEC0BF018D01AEC0AF015D08BEC09F061
:10228C0012D03B50000AEDE03B50010AECE03B5011
:10229C00020AEBE03B50030AEBE03B50040AEBE094
:0822AC003B50050AEBE01200B3
:1022B4000101786B786B0A0E785DD8B090D076C146
:1022C40079F177C17AF178C100F0000E016E070E42
:1022D400046E000E056E22EC01F0795100267A514D
:1022E4000122050E0024E96E000E0120EA6EEE5074
:1022F400000A73E176C179F177C17AF178C100F00F
:10230400000E016E070E046E000E056E22EC01F045
:10231400795100267A510122010E0024E96E000E43
:102324000120EA6EEECF05F0EECF06F0EECF07F017
:10233400EECF08F0460E7625D96E000E7721DA6EC0
:10234400D9CFE9FFDACFEAFFEECF01F0EECF02F00A
:10235400EECF03F0EECF04F00850041808E1075064
:10236400031805E10650021802E10550011835E191
:1023740076C179F177C17AF178C100F0000E016E6F
:10238400070E046E000E056E22EC01F07951002652
:102394007A510122060E0024E96E000E0120EA6E35
:1023A400EE50000A1AE176C179F177C17AF178C169
:1023B40000F0000E016E070E046E000E056E22EC96
:1023C40001F0795100267A510122060E0024E16EB3
:1023D400000E0120E26E010EE66E782B6CD712001F
:1023E4002E5272E02EC05FF01D5237E0020E010142
:1023F4007B6F010E7C6F3E0E7D6FBCEC09F0020E0C
:1024040001017B6F020E7C6F3E0E7D6FBCEC09F008
:10241400020E01017B6F030E7C6F3E0E7D6FBCECE0
:1024240009F0020E01017B6F100E7C6F3C0E7D6F74
:10243400BCEC09F0020E01017B6F0F0E7C6F3C0EA9
:102444007D6FBCEC09F0020E01017B6F0E0E7C6FF8
:102454003C0E7D6FBCEC09F036D0020E01017B6F9F
:10246400010E7C6F200E7D6FBCEC09F0020E0101A1
:102474007B6F020E7C6F200E7D6FBCEC09F0020EA8
:1024840001017B6F030E7C6F200E7D6FBCEC09F0A5
:10249400020E01017B6F100E7C6F200E7D6FBCEC71
:1024A40009F0020E01017B6F0F0E7C6F200E7D6F11
:1024B400BCEC09F0020E01017B6F0E0E7C6F200E46
:1024C4007D6FBCEC09F03AD05F5236E0020E010198
:1024D4007B6F010E7C6F200E7D6FBCEC09F0020E49
:1024E40001017B6F020E7C6F200E7D6FBCEC09F046
:1024F400020E01017B6F030E7C6F200E7D6FBCEC1E
:1025040009F0020E01017B6F100E7C6F200E7D6FAF
:10251400BCEC09F0020E01017B6F0F0E7C6F200EE4
:102524007D6FBCEC09F0020E01017B6F0E0E7C6F17
:0E253400200E7D6FBCEC09F01DC05FF01200A0
:10254200595253E0596A4BD01FC032F020C033F0C9
:1025520021C034F022C035F0010E366E7E0E01012C
:10256200AE6F000EAF6F010EB06F54EC02F07E0E34
:10257200AE6F000EAF6F3C0EB06F000EB16FB26F58
:10258200B36F010EB46FD1EC02F0C80E556E0B0E94
:102592000C6E620E0D6E0D2EFED70C2EFCD70000B7
:1025A200550E7B6F000E7C6F010E7D6F03EC0BF0FE
:1025B20084801BD0C80E556E0B0E0C6E620E0D6E13
:1025C2000D2EFED70C2EFCD70000550E01017B6F9D
:1025D200000E7C6F010E7D6F03EC0BF006D05550A0
:0C25E200010AB2E05550020AE5E01200C8
:1025EE00460E01017625E96E000E7721EA6EEECFDA
:1025FE0001F0EECF02F0EECF03F0EECF04F0045078
:10260E00FF0A08E10350FF0A05E10250FF0A02E14A
:10261E000150FF0A24E00101460E7625046E000EDD
:10262E007721056E04C0E9FF05C0EAFF010EEE2416
:10263E00006E000EEE20016E000EEE20026E000EF9
:10264E00EE20036E04C0E1FF05C0E2FF00C0E6FF0E
:10265E0001C0E6FF02C0E6FF03C0E6FF0BD001019A
:10266E00460E7625E16E000E7721E26EE66AE66A88
:06267E00E66AE66A1200A4
:102684007DEC14F07EDD010E0201406F010E416FFE
:10269400710EF66E280EF76E000EF86E540EE16E93
:1026A400010EE26E110E006E010E016E10EC01F0CF
:1026B400540E426F010E436F6BEC01F0020E0201E7
:1026C400406F010E416F820EF66E280EF76E000EFB
:1026D400F86E650EE16E010EE26E110E006E010ED3
:1026E400016E10EC01F0650E426F010E436F6BEC4E
:1026F40001F01E5209E072EC0EF02D50000802E2C7
:102704002D0601D0829A1E6A27521EE02A50000824
:1027140002E22A0601D0809C1D52010ED8A4000EAC
:102724001D6E5EDE010E1F26000E202221222222B3
:102734007E0E0101766F000E776F57DF7E0E766F87
:10274400000E776FB5DD276A26DC00C02CF0005040
:10275400000A04E0140E2A6E030E2D6E5250000A75
:1027640002E17BEC0EF080DDEADEE3EC0DF02A50B2
:0A277400000801E2808CBDD7FFD7FA
:1028FA0010EE1DF0380E006E010E016E060EF66E19
:0E290A00280EF76E000EF86E10EC01F01200B1
:10277E00202020202020202020202020202020204B
:01278E00004A
:10278F0031204F70656E6E696E672054696D6520DC
:01279F000039
:1027A0003220436C6F73696E672054696D65202019
:0127B0000028
:1027B1003320496E76616C69642054696D6520200F
:0127C1000017
:1027C20034204175746F636C6F73652054696D6555
:0127D2000006
:1027D30035204E6574204164647265737320202034
:0127E30000F5
:1027E400362053617665204368616E6765732020E7
:0127F40000E4
:1027F50037204469736361726420262045786974C3
:0128050000D2
:0128060000D1
:0128070000D0
:0428080000000000CC
:04280C0000000000C8
:0128100000C7
:0128110000C6
:0128120000C5
:012813000ABA
:0128140000C3
:0128150000C2
:0128160005BC
:0128170000C0
:0128180000BF
:0228190041007C
:04281B0000000000B9
:01281F0000B8
:0128200000B7
:0128210000B6
:0128220000B5
:0128230000B4
:0128240000B3
:01282500149E
:0128260000B1
:0128270001AF
:012828000AA5
:012829000AA4
:10282A00202020202020202020202020202020209E
:01283A00009D
:01283B00009C
:01283C00009B
:01283D00009A
:10283E0020202020496E76616C69642020202020A3
:01284E000089
:10284F00202020204F70656E6E696E67202020203B
:01285F000078
:10286000202020204F70656E6E696E67202020202A
:012870000067
:1028710020202020205374617274212020202020E8
:012881000056
:102882002020202020202020202020202020202046
:012892000045
:1028930020202020436C6F73696E67202020202046
:0128A3000034
:1028A400202020204F70656E6E696E6720202020E6
:0128B4000023
:1028B5002020202020436C6F736564202020202079
:0128C5000012
:1028C600202020204F70656E6E696E6720202020C4
:0128D6000001
:1028D70020202020496E76616C696420202020200A
:0128E70000F0
:1028E80020202020204F70656E6564202020202045
:0128F80000DF
:020000040030CA
:0E0000001D187F7CFF8991FF0FC00FE00F409D
:0200000400F00A
:0200000400F00A
:10000000141402280A000000000000000000000094
:10001000FFFFFFFFFFFFFFFFFFFFFFFFFFFFFFFFF0
:10002000FFFFFFFFFFFFFFFFFFFFFFFFFFFFFFFFE0
:10003000FFFFFFFFFFFFFFFFFFFFFFFFFFFFFFFFD0
:10004000FFFFFFFFFFFFFFFFFFFFFFFFFFFFFFFFC0
:00000001FF
