:040000008CEF12F07F
:1000080000C018F001C017F002C016F003C015F0C8
:10001800E1CF1BF0E2CF1CF0E9CF19F0EACF1AF0DC
:10002800F2A410D0F2AA0ED0010E1F6E372A190EB4
:10003800375C03E3010E1D6E376A630ED76EBF0E81
:10004800D66EF2949DAA09D09EAA07D0540E02013A
:100058000A6F000E0B6F8BEC0EF018C000F017C083
:1000680001F016C002F015C003F019C0E9FF1AC06C
:0C007800EAFF1BC0E1FF1CC0E2FF11000A
:100084003A0E0C6E230E0D6E0D2EFED70C2EFCD7E1
:02009400120058
:0A009600850E0D6E0D2EFED7120030
:0C00A000020E0D6E0D2EFED700001200A7
:1000AC00086A080E0C6E003408360450085ED8B08E
:0E00BC0002D00826D89000360C2EF5D7120080
:1000CA00020109BF02D0819601D0818609BD02D002
:1000DA00819401D0818409BB02D0819201D08182AE
:1000EA0009B902D0819001D0818000016CB102D09F
:1000FA00818A01D0819A8188CEDF8198020109B76D
:10010A0002D0819601D0818609B502D0819401D0AE
:10011A00818409B302D0819201D0818209B102D0CF
:10012A00819001D0818000016CB102D0818A01D016
:10013A00819A8188B0DF81986CA102D09EDF01D0BC
:04014A00A5DF12001B
:10014E0005C204F006C205F003C202F004C203F0B9
:10015E0007C200F008C201F0010E0201075F000E97
:10016E00085B005001100FE004C0E9FF05C0EAFF74
:10017E0002C0E1FF03C0E2FFEECFE6FF024A032A10
:10018E00044A052AE5D703C200F004C201F01200AA
:0E019E0000016C9103C209F291DF6C81120026
:1001AC000201066B030E065D0AE206510425E16EA0
:1001BC00000E0521E26E200EE66E062BF3D70651DB
:1001CC000425E16E000E0521E26EE66A0607065173
:1001DC000425076F000E0521086F0A0E046E03C27A
:1001EC0000F05EDF08C000F0300E002607C2E1FF11
:1001FC0008C2E2FF00C0E6FF0A0E046E03C200F064
:10020C004FDF00C003F20050000A01E102D00607E4
:04021C00DED7120017
:10022000F8C103F202010333039FF9C104F2FAC1DA
:1002300005F2BCDF010E0101F815016E0150010A43
:100240001CE1030EF9250201036F000E0101FA21E2
:100250000201046F2E0E0101FB6F350EFC6F730E51
:10026000FD6FFE6BFB0E0201056F010E066F040EA3
:10027000076F000E086F6BDF1CD0030E0101F9251C
:100280000201036F000E0101FA210201046F2E0E1C
:100290000101FF6F300E0201006F730E016F026BE0
:1002A000FF0E056F010E066F040E076F000E086F3C
:0402B0004EDF12000B
:1002B4000900F5CFE6FF0006FBE10106F9E11200B3
:1002C40010D0800E0101F86F1AD0C00EF86F17D04D
:1002D400940EF86F14D0D40EF86F11D0800EF86F0E
:1002E4000ED00101F851010AECE0F851020AEDE0E8
:1002F400F851030AEDE0F851040AEDE0EFD7F905EF
:10030400006EF851002600C0F8F100C009F2DBDEEF
:100314006C910101FC6BFC51FA25E96E000EFB2186
:10032400EA6EEE520CE0FC51FA25E96E000EFB2158
:10033400EA6EEECF03F231DF0101FC2BECD70001B2
:040344006C811200B6
:100348007F9CF9C175FFF8C174FF7F9E7F8073CFD2
:0403580000F012009F
:10035C000B6A0A6A096A00500402F4CF09F0F3CF61
:10036C0008F001500502F4CF0BF0F3CF0AF0005067
:10037C000502F3500926F4500A22E86A0B220150B8
:10038C000402F3500926F4500A22E86A0B2208C032
:10039C0000F009C001F00AC002F00BC003F012001B
:1003AC0094928292010E00016F6F6E6BF8C16DF02A
:1003BC000101F851960A04E0F851A90A01E006D0AF
:0E03CC00010EF81900016D6FFF0E6E6F12002A
:0C03DA00BAB201D0FDD7F8C179FF1200C3
:0E03E600ACB202D00000FCD7F8C1ADFF12008F
:1003F400F8C1C9FFC7B002D00000FCD7C9CF00F0D4
:020404001200E4
:100406007FA202D00000FCD77F9CF9C175FFF8C11E
:1004160074FFFAC173FF7F9E7F84F2CF00F0F29ED5
:10042600550E7E6EAA0E7E6E7F8200BE02D0F29EB2
:0804360001D0F28E7F94120048
:10043E00086A096A100E0C6E01340836093604502B
:10044E00085E0550D8A0053C095ED8B007D0045010
:10045E0008260550D8B0053C0926D890003601363E
:06046E000C2EEAD712007B
:10047400AECF01F0ABA202D0AB98AB8801C000F0C4
:02048400120064
:0A048600000E9EBA010E006E120077
:0A049000000EBAB2010E006E120059
:0A049A00000EACB2010E006E12005D
:1004A4007ACF01F0A6A202D0A698A68801C000F0D7
:0204B400120034
:0A04B600000EA4BA010E006E120041
:1004C0000101F86BF96B40DF00C03AF0010EF86FE4
:1004D000000EF96F39DF00C03BF0020EF86F000E1E
:1004E000F96F32DF00C04FF0030EF86F000EF96FA6
:1004F0002BDF00C052F0040EF86F000EF96F24DFFE
:0605000000C053F01200E0
:1005060001016A6B6B6B6A6B0A0E6A5D6AE267C110
:100516006CF168C16DF16AC100F0000E016E070E44
:10052600046E000E056E17DF6C5100266D51012218
:10053600050E0024E96E000E0120EA6EEE50000A58
:100546004EE167C16CF168C16DF16AC100F0000E41
:10055600016E070E046E000E056EFDDE6C51002660
:100566006D510122060E0024E96E000E0120EA6E8E
:10057600EE50010A34E167C16CF168C16DF16AC1E0
:1005860000F0000E016E070E046E000E056EE3DE2F
:1005960000506C25E96E01506D21EA6EEECF01F038
:1005A600015069191CE167C16CF168C16DF16AC13E
:1005B60000F0000E016E070E046E000E056ECBDE17
:1005C6006C5100266D510122050E0024E16E000ECD
:1005D6000120E26E010EE66E010E6B6F02D06A2BF1
:0805E60093D76BC100F0120075
:1005EE000101F86BF96B3AC0FAF106DF010E010159
:1005FE00F86F000EF96F3BC0FAF1FEDE020E01013C
:10060E00F86F000EF96F4FC0FAF1F6DE030E01011E
:10061E00F86F000EF96F52C0FAF1EEDE040E010112
:10062E00F86F000EF96F53C0FAF1E6DE53C0F8F121
:04063E00B6DE120012
:1006420001016A6B0A0E6A5D4DE267C16BF168C116
:100652006CF16AC100F0000E016E070E046E000E0E
:10066200056E7BDE6B5100266C510122050E0024C3
:10067200E96E000E0120EA6EEE50000A31E167C118
:100682006BF168C16CF16AC100F0000E016E070ED9
:10069200046E000E056E61DE00506B25E96E01509E
:1006A2006C21EA6EEECF01F00150691919E167C1C0
:1006B2006BF168C16CF16AC100F0000E016E070EA9
:1006C200046E000E056E49DE6B5100266C5101224C
:1006D200050E0024E16E000E0120E26E010EE66EB0
:0606E2006A2BB0D71200E4
:1006E800F250026EF29E0500FF6A0150FE6E005045
:0806F800FD6E02BEF28E12003D
:1007000001016B6B050E6B5D0AE26B516925E16EB1
:10071000000E6A21E26E200EE66E6B2BF3D76B5152
:100720006925E16E000E6A21E26EE66A6B076B5185
:1007300069256C6F000E6A216D6F0A0E046E000E43
:10074000056E67C100F068C101F079DE08C000F0F5
:1007500009C001F0300E00266CC1E1FF6DC1E2FF5F
:1007600000C0E6FF0A0E046E000E056E67C100F0C1
:1007700068C101F064DE00C067F101C068F1000EDD
:10078000011802E1000E001801E102D06B07CFD77B
:02079000120055
:100792000B6A0A6A096A086A0E6A03340836045048
:1007A200085E0550D8A0053C095E0650D8A0063C5C
:1007B2000A5E0750D8A0073C0B5EE86AD8A0010E7B
:1007C2000E5E0336070E0C6E0334083609360A36FF
:1007D2000B360E36045003A012D0085E0550D8A086
:1007E200053C095E0650D8A0063C0A5E0750D8A018
:1007F200073C0B5EE86AD8A0010E0E5E11D00826F7
:100802000550D8B0053C09260650D8B0063C0A2649
:100812000750D8B0073C0B26E86AD8B0010E0E2666
:1008220003360C2ED1D70234083609360A360B3677
:100832000E36045003A012D0085E0550D8A0053C25
:10084200095E0650D8A0063C0A5E0750D8A0073CB5
:100852000B5EE86AD8A0010E0E5E11D00826055084
:10086200D8B0053C09260650D8B0063C0A260750E7
:10087200D8B0073C0B26E86AD8B0010E0E26023625
:10088200070E0C6E0234083609360A360B360E365F
:10089200045002A012D0085E0550D8A0053C095EA3
:1008A2000650D8A0063C0A5E0750D8A0073C0B5E53
:1008B200E86AD8A0010E0E5E11D008260550D8B005
:1008C200053C09260650D8B0063C0A260750D8B087
:1008D200073C0B26E86AD8B0010E0E2602360C2E13
:1008E200D1D70134083609360A360B360E36045093
:1008F20002A012D0085E0550D8A0053C095E065041
:10090200D8A0063C0A5E0750D8A0073C0B5EE86AF6
:10091200D8A0010E0E5E11D008260550D8B0053CB5
:1009220009260650D8B0063C0A260750D8B0073C24
:100932000B26E86AD8B0010E0E260136070E0C6EA1
:100942000134083609360A360B360E36045001A039
:1009520012D0085E0550D8A0053C095E0650D8A00A
:10096200063C0A5E0750D8A0073C0B5EE86AD8A096
:10097200010E0E5E11D008260550D8B0053C09269E
:100982000650D8B0063C0A260750D8B0073C0B26C2
:10099200E86AD8B0010E0E2601360C2ED1D70034EB
:1009A200083609360A360B360E36045001A012D02C
:1009B200085E0550D8A0053C095E0650D8A0063C4A
:1009C2000A5E0750D8A0073C0B5EE86AD8A0010E69
:1009D2000E5E11D008260550D8B0053C09260650F7
:1009E200D8B0063C0A260750D8B0073C0B26E86A66
:1009F200D8B0010E0E260036070E0C6E00340836F3
:100A020009360A360B360E36045000A012D0085EA4
:100A12000550D8A0053C095E0650D8A0063C0A5EE7
:100A22000750D8A0073C0B5EE86AD8A0010E0E5E04
:100A320011D008260550D8B0053C09260650D8B07A
:100A4200063C0A260750D8B0073C0B26E86AD8B005
:100A5200010E0E2600360C2ED1D700B00ED0045057
:100A620008260550D8B0053C09260650D8B0063CE9
:0C0A72000A260750D8B0073C0B261200E3
:100A7E0001016F6B706B716B726B460E6725E96EC1
:100A8E00000E6821EA6E6951EE246F6F6A51EE20F6
:100A9E00706F6B51EE20716F6C51EE20726F6E6B3A
:100AAE000A0E6E5DD8B083D067C173F168C174F160
:100ABE006EC100F0000E016E070E046E000E056E84
:100ACE0046DC7351002674510122050E0024E96E96
:100ADE00000E0120EA6EEE50010A67E167C173F164
:100AEE0068C174F16EC100F0000E016E070E046E47
:100AFE00000E056E2CDC00507325E16E0150742142
:100B0E00E26E6DC1E6FF67C173F168C174F16EC12B
:100B1E0000F0000E016E070E046E000E056E17DC5F
:100B2E007351002674510122010E0024E16E000E55
:100B3E000120E26E6FC1E6FF70C1E6FF71C1E6FFF4
:100B4E0072C1E6FF67C173F168C174F16EC100F046
:100B5E00000E016E070E046E000E056EAEEC01F077
:100B6E007351002674510122050E0024E16E000E11
:100B7E000120E26EE66A67C173F168C174F16EC15D
:100B8E0000F0000E016E070E046E000E056EAEEC48
:100B9E0001F07351002674510122060E0024E16EFD
:100BAE00000E0120E26EE66A02D06E2B79D712009B
:100BBE00EE0E0201036F010E046F100EF66E260E7E
:100BCE00F76E000EF86E670EE16E010EE26E110EFC
:100BDE00006E010E016E5AEC01F0670E056F010EEC
:100BEE00066F0A0E076F000E086FA7EC00F03ED1DD
:100BFE00010E0101F86F010EF96F210EF66E260E31
:100C0E00F76E000EF86E780EE16E010EE26E110EAA
:100C1E00006E010E016E5AEC01F0780EFA6F010EA5
:100C2E00FB6F62EC01F03AC0F8F1EE0E0101F96FC4
:100C3E00010EFA6F10EC01F0020E0101F86F050EB5
:100C4E00F96FEE0EFA6F010EFB6F62EC01F028D118
:100C5E00010E0101F86F010EF96F320EF66E260EBF
:100C6E00F76E000EF86E890EE16E010EE26E110E39
:100C7E00006E010E016E5AEC01F0890EFA6F010E34
:100C8E00FB6F62EC01F03BC0F8F1EE0E0101F96F63
:100C9E00010EFA6F10EC01F0020E0101F86F050E55
:100CAE00F96FEE0EFA6F010EFB6F62EC01F0F8D0E9
:100CBE00010E0101F86F010EF96F430EF66E260E4E
:100CCE00F76E000EF86E9A0EE16E010EE26E110EC8
:100CDE00006E010E016E5AEC01F09A0EFA6F010EC3
:100CEE00FB6F62EC01F04FC0F8F1EE0E0101F96FEF
:100CFE00010EFA6F10EC01F0020E0101F86F050EF5
:100D0E00F96FEE0EFA6F010EFB6F62EC01F0C8D0B8
:100D1E00010E0101F86F010EF96F540EF66E260EDC
:100D2E00F76E000EF86EAB0EE16E010EE26E110E56
:100D3E00006E010E016E5AEC01F0AB0EFA6F010E51
:100D4E00FB6F62EC01F052C0F8F1EE0E0101F96F8B
:100D5E00010EFA6F10EC01F0020E0101F86F050E94
:100D6E00F96FEE0EFA6F010EFB6F62EC01F098D088
:100D7E00010E0101F86F010EF96F650EF66E260E6B
:100D8E00F76E000EF86EBC0EE16E010EE26E100EE6
:100D9E00006E010E016E5AEC01F0BC0EFA6F010EE0
:100DAE00FB6F62EC01F053C003F2EE0E0201046F12
:100DBE00010E056FD6EC00F0020E0101F86F050E64
:100DCE00F96FEE0EFA6F010EFB6F62EC01F068D058
:100DDE00010E0101F86F010EF96F750EF66E260EFB
:100DEE00F76E000EF86ECC0EE16E010EE26E110E75
:100DFE00006E010E016E5AEC01F0CC0EFA6F010E70
:100E0E00FB6F62EC01F0020E0101F86F010EF96F3B
:100E1E0050C0FAF151C0FBF162EC01F041D0010E6D
:100E2E000101F86F010EF96F860EF66E260EF76E43
:100E3E00000EF86EDD0EE16E010EE26E110E006E0A
:100E4E00010E016E5AEC01F0DD0EFA6F010EFB6F12
:100E5E0062EC01F0020E0101F86F010EF96F50C045
:100E6E00FAF151C0FBF162EC01F01AD03C50000ACD
:100E7E00D8B4BED63C50010AD8B4EAD63C50020AC9
:100E8E00D8B416D73C50030AD8B442D73C50040A03
:100E9E00D8B46ED73C50050A9BE03C50060ABFE022
:020EAE00120030
:100EB00026C005F027C006F028C007F029C008F0BA
:100EC0002C50055E2D50065A2E50075A2F50085AA6
:100ED00005C001F006C002F007C003F008C004F02E
:100EE0000432033202320132049E01C034F102C0E6
:100EF00035F103C036F104C037F104500001641924
:100F000008E10350631905E10250621902E1015042
:100F10006119D8B4D8D034C161F035C162F036C19E
:100F200063F037C164F03C0E046E000E056E066E71
:100F3000076E34C100F035C101F036C102F037C18F
:100F400003F027DC08C000F009C001F00AC002F07D
:100F50000BC003F000C039F13C0E046E000E056EAC
:100F6000066E076E34C100F035C101F036C102F0E3
:100F700037C103F00EDC00C034F101C035F102C00E
:100F800036F103C037F13C0E046E000E056E066E9E
:100F9000076EC9EC03F008C000F009C001F00AC0F8
:100FA00002F00BC003F000C038F13C0E046E000EDE
:100FB000056E066E076E34C100F035C101F036C112
:100FC00002F037C103F0C9EC03F000C067F101C0C3
:100FD00068F13C0E0101696F010E6A6F80EC03F04D
:100FE00038C103F2420E0201046F010E056FD6EC08
:100FF00000F039C103F2460E046F010E056FD6EC06
:1010000000F03A0E036F010E046F4C0E01014B6F9E
:10101000430E4C6F3A0E4D6F4E6B4B0E0201056F37
:10102000010E066F030E076F000E086FA7EC00F0AD
:10103000410E036F010E046F480E01014F6F200E29
:10104000506F516B4F0E0201056F010E066F020EBD
:10105000076F000E086FA7EC00F0450E036F010E3E
:10106000046F4D0E0101526F200E536F546B520EE0
:101070000201056F010E066F020E076F000E086F6A
:10108000A7EC00F0490E036F010E046F530E01012F
:10109000556F200E566F576B550E0201056F010EEE
:1010A000066F020E076F000E086FA7EC00F001013B
:1010B0004A6B010EF86F010EF96F3A0EFA6F010ECE
:0810C000FB6F62EC01F012006D
:1010C800E60E0001746F030E756FF80E766F010E51
:1010D800776F740E706F040E716F000E726F000ED2
:1010E800736F860E656F040E666F000E676F000ED5
:1010F800686F9A0E786F040E796F000E7A6F000E83
:101108007B6FAC8A900EAB6E948E949C9EAA03D093
:08111800AECF00F0FBD712007E
:101120007C0E0101676F000E686F360E696F83ECED
:1011300002F0005223E0020E0C6F2A50000A1DE15B
:101140004E50000A1AE1020EF86F010EF96F450EBB
:10115000F66E270EF76E000EF86E340EE16E010E7D
:10116000E26E110E006E010E016E5AEC01F0340EAB
:0E117000FA6F010EFB6F62EC01F02B6A1200A9
:10117E006DC03AF100016E5304E0010E6D190101CC
:10118E003A6F010182823605396F76C0E1FF77C072
:10119E00E2FF960EE66E74C000F075C001F074ECBE
:1011AE0003F001013A51960A04E03A51A90A01E00E
:1011BE0002D03A71368D76C0E1FF77C0E2FF3AC1B8
:1011CE00E6FF74C000F075C001F074EC03F001018D
:1011DE00376B3751395D32E337513425E96E000EE6
:1011EE003521EA6EEECF01F001C03BF10150960AB7
:1011FE0004E03B51A90A01E01FD037513425016E9E
:10120E00000E3521026E01C0E9FF02C0EAFF010E99
:10121E00EE18006E01C0E1FF02C0E2FF00C0E6FF63
:10122E0037C101F0040E006E015004E0003600904C
:10123E00FF0FFBD700503613372BCBD776C0E1FF0D
:10124E0077C0E2FF36C1E6FF74C000F075C001F052
:10125E0074EC03F001013A513619386F376B375180
:10126E00395D1FE337513425006E000E3521016EB6
:10127E0000C0D9FF01C0DAFFDE50381B76C0E1FF97
:10128E0077C0E2FF00C0E9FF01C0EAFFEECFE6FF44
:10129E0074C000F075C001F074EC03F00101372B3F
:1012AE00DED7381D016E01C038F10150960A04E0F8
:1012BE003851A90A01E001D0382B76C0E1FF77C082
:1012CE00E2FF38C1E6FF74C000F075C001F074ECA7
:1012DE0003F076C0E1FF77C0E2FFA90EE66E74C0A0
:1012EE0000F075C001F074EC03F078C000F079C026
:1012FE0001F074EC03F00050000A01E1F6D782927F
:02130E001200CB
:101310000101366B0A0E365D66E234C137F135C124
:1013200038F136C100F0000E016E070E046E000E9B
:10133000056EAEEC01F000503725E16E015038210A
:10134000E26EE66A34C137F135C138F136C100F0DA
:10135000000E016E070E046E000E056EAEEC01F07D
:101360003751002638510122010E0024E16E000E93
:101370000120E26EE66AE66AE66AE66A34C137F19F
:1013800035C138F136C100F0000E016E070E046E53
:10139000000E056EAEEC01F03751002638510122E7
:1013A000050E0024E16E000E0120E26E010EE66ED5
:1013B00034C137F135C138F136C100F0000E016E8D
:1013C000070E046E000E056EAEEC01F037510026DC
:1013D00038510122060E0024E16E000E0120E26E5B
:1013E000E66A362B97D7460E3425E16E000E35217E
:0C13F000E26EE66AE66AE66AE66A12004F
:1013FC0010D0800E0101346F1AD0C00E346F17D08C
:10140C00940E346F14D0D40E346F11D0800E346F10
:10141C000ED001013451010AECE03451020AEDE026
:10142C003451030AEDE03451040AEDE0EFD73505F1
:10143C00006E3451002600C034F100016C8100C0F4
:10144C0009F265EC00F06C9136C109F265EC00F024
:04145C006C8112008D
:10146000DA0E0001746F030E756FF80E766F010EC1
:10147000776FA40E706F040E716F000E726F000E06
:10148000736FB60E656F040E666F000E676F000E09
:10149000686F900E786F040E796F000E7A6F000EF1
:1014A0007B6FBA8A900EA66E958E959CA4AA03D0E7
:0814B0007ACF00F0FBD7120017
:1014B80034C170F035C171F036C172F037C173F0C4
:1014C80038C174F039C175F03AC176F03BC177F094
:1014D8003CC165F03DC166F03EC167F03FC168F0B0
:1014E80040C178F041C179F042C17AF043C17BF044
:0214F8001200E0
:1014FA009398939A93909392939493968198819ABE
:10150A00819681948192819042EC00F042EC00F045
:10151A0042EC00F081828180818850EC00F0819851
:10152A0042EC00F0818850EC00F0819842EC00F027
:10153A00818850EC00F0819842EC00F0819081881B
:10154A0050EC00F0819842EC00F0818850EC00F0F9
:10155A00819881928186818850EC00F0819842ECD2
:10156A0000F081968180818850EC00F0819881900A
:10157A00818850EC00F0819842EC00F0818850ECB0
:10158A0000F081988180818850EC00F0819842ECCB
:10159A0000F08190818850EC00F0819881868184E6
:1015AA0081828180818850EC00F0819842EC00F0C1
:0615BA0000016C8112002B
:0A15C000DFEC05F0020E4E6E120083
:1015CA00306A25A406D03C50000803E23C06010E0E
:1015DA004E6E25A206D0050E3C5C03E23C2A010EA3
:0C15EA004E6E25A002D0030E4E6E1200C3
:1015F6007C0E0101676F000E686F330E696F83EC16
:1016060002F0005245E00C6B2A50000A1DE14E50D4
:10161600000A1AE1020EF86F010EF96F670EF66EF8
:10162600270EF76E000EF86E340EE16E010EE26EB6
:10163600110E006E010E016E5AEC01F0340EFA6FB7
:10164600010EFB6F62EC01F0030E2B6E7C0E0101A6
:10165600676F000E686F4FC069F1000E6A6F6937D9
:101666006A376991000E6ABFFF0E6B6F6C6F340E9E
:101676006D6F3FEC05F04F502624326E000E27208A
:10168600336E000E2820346E000E2920356E366A21
:02169600120040
:10169800365234E07C0E0101676F000E686F3AC065
:1016A80069F1000E6A6F6B6F6C6F320E6D6F3FECF5
:1016B80005F0030E0C6F2A50000A1DE14E50000A77
:1016C8001AE1020EF86F010EF96F560EF66E270E2C
:1016D800F76E000EF86E340EE16E010EE26E110E1A
:1016E800006E010E016E5AEC01F0340EFA6F010E15
:0E16F800FB6F62EC01F0010E2B6E366A1200E1
:101706007C0E0101676F000E686F320E696F83EC05
:1017160002F0005238E0010E0C6F2A50000A1DE15B
:101726004E50000A1AE1020EF86F010EF96F780E9C
:10173600F66E270EF76E000EF86E340EE16E010E91
:10174600E26E110E006E010E016E5AEC01F0340EBF
:10175600FA6F010EFB6F62EC01F0020E2B6E7C0E2F
:101766000101676F000E686F4F50525C696F6A6BBC
:10177600000E6A5B000E6ABFFF0E6B6F6C6F330E56
:081786006D6F3FEC05F012004D
:10178E00010E306E79D025A206D0FF0E3A5C03E230
:10179E003A2ADFEC05F025A406D03A50000803E201
:1017AE003A06DFEC05F025A002D0010E4E6E79D080
:1017BE0025A206D0FF0E3B5C03E23B2ADFEC05F0D0
:1017CE0025A406D03B50000803E23B06DFEC05F0F3
:1017DE0025A002D0010E4E6E64D025A206D0FF0EBB
:1017EE004F5C03E24F2ADFEC05F025A406D04F50E4
:1017FE00000803E24F06DFEC05F025A002D0010E33
:10180E004E6E4FD025A206D0FF0E525C03E2522A36
:10181E00DFEC05F025A406D05250000803E2520674
:10182E00DFEC05F025A002D0010E4E6E3AD025A2B7
:10183E0006D0FF0E535C03E2532ADFEC05F025A41D
:10184E0006D05350000803E25306DFEC05F025A046
:10185E0002D0010E4E6E25D025A001D04E6A306A00
:10186E00F7EC02F04E6A1DD025A001D04E6A306A08
:10187E0060EC02F04E6A15D03C50000A84E03C50F9
:10188E00010A96E03C50020AA8E03C50030ABAE076
:10189E003C50040ACCE03C50050ADEE03C50060AFF
:0418AE00E3E0120061
:1018B2007C0E0101676F000E686F350E696F83EC55
:1018C20002F0005238E00C6B2A50000A1DE14E5023
:1018D200000A1AE1020EF86F010EF96FCE0EF66ED3
:1018E200260EF76E000EF86E340EE16E010EE26EF9
:1018F200110E006E010E016E5AEC01F0340EFA6FF9
:10190200010EFB6F62EC01F0050E2B6E7C0E0101E5
:10191200676F000E686F4FC069F1000E6A6F69371A
:101922006A376991000E6ABFFF0E6B6F6C6F360EDD
:101932006D6F3FEC05F082B04DD07C0E676F000EEC
:10194200686F350E696F21EC03F07C0E676F000E35
:10195200686F360E696F21EC03F0030E0C6F2A508C
:10196200000A1DE14E50000A1AE1020EF86F010E44
:10197200F96FDF0EF66E260EF76E000EF86E450E4C
:10198200E16E010EE26E110E006E010E016E5AEC56
:1019920001F0450EFA6F010EFB6F62EC01F0010ED1
:1019A2002B6E7C0E0101676F000E686F26C069F115
:1019B20027C06AF128C06BF129C06CF13250695F0F
:1019C20033506A5B34506B5B35506C5B320E6D6F1B
:1019D2003FEC05F036524EE07C0E676F000E686FEA
:1019E200350E696F21EC03F07C0E676F000E686F95
:1019F200360E696F21EC03F0030E0C6F2A50000AB9
:101A02001DE14E50000A1AE1020EF86F010EF96F45
:101A1200F00EF66E260EF76E000EF86E560EE16EA2
:101A2200010EE26E110E006E010E016E5AEC01F013
:101A3200560EFA6F010EFB6F62EC01F0010E2B6E77
:101A42007C0E0101676F000E686F26C069F127C026
:101A52006AF128C06BF129C06CF13250695F3350D2
:101A62006A5B34506B5B35506C5B320E6D6F3FECD2
:061A720005F0366A1200C7
:101A78007C0E0101676F000E686F340E696F83EC8E
:101A880002F0005240E0040E0C6F2A50000A1DE1DB
:101A98004E50000A1AE1020EF86F010EF96F010E9E
:101AA800F66E270EF76E000EF86E340EE16E010E1C
:101AB800E26E110E006E010E016E5AEC01F0340E4A
:101AC800FA6F010EFB6F62EC01F0040E2B6E7C0EB8
:101AD8000101676F000E686F4FC000F0000E016EC5
:101AE80000360136009000503B5C696F01C06AF116
:101AF800000E6A57000E6ABFFF0E6B6F6C6F350ED3
:101B08006D6F3FEC05F082B043D07C0E676F000E1E
:101B1800686F350E696F21EC03F07C0E676F000E5D
:101B2800686F340E696F21EC03F0030E0C6F2A50B6
:101B3800000A1DE14E50000A1AE1020EF86F010E6C
:101B4800F96F120EF66E270EF76E000EF86E450E40
:101B5800E16E010EE26E110E006E010E016E5AEC7E
:101B680001F0450EFA6F010EFB6F62EC01F0010EF9
:101B78002B6E7C0E0101676F000E686F4FC069F114
:101B8800000E6A6F6B6F6C6F320E6D6F3FEC05F075
:021B9800120039
:101B9A002150000801E221062250000801E2220633
:021BAA00120027
:101BAC00600ED36E9B8C0F015D6B5C6B806A816ADF
:101BBC00826A836A846ABF0E926EC00E936E810E27
:101BCC00946EB00E956E0E0E966E810ED56E630EE3
:101BDC00D76EBF0ED66EF28EF28A89DC0C0E020125
:101BEC00096F65EC00F0150E0B6E4B0E0C6EBE0EF5
:101BFC000D6E0D2EFED70C2EFCD70B2EFAD7000037
:101C0C00808CCF0EAF6EAC8464EC08F0CF0E7B6E84
:101C1C00BA8420DC9E9A9D8A9F8A740E0101346FCF
:101C2C00040E356F000E366F000E376FE60E386FF0
:101C3C00030E396FF80E3A6F010E3B6F860E3C6F38
:101C4C00040E3D6F000E3E6F000E3F6F9A0E406FFC
:101C5C00040E416F000E426F000E436F27DC7C0EAA
:101C6C00346F000E356F88EC09F0020E0C6F60ECCF
:0C1C7C0002F053C0F8F1D6EC01F01200A9
:101C8800585244E0586A3CD026C02CF027C02DF0AA
:101C980028C02EF029C02FF0010E236EC80E546EF6
:101CA800C80E556EC80E566E0B0E0C6E620E0D6E7B
:101CB8000D2EFED70C2EFCD70000540E0101346FF8
:101CC800000E356F030E366FBFEC08F01FD0C80E3C
:101CD800546EC80E556EC80E566E0B0E0C6E620E04
:101CE8000D6E0D2EFED70C2EFCD70000540E0101F0
:101CF800346F000E356F030E366FBFEC08F006D058
:0E1D08005450010AC1E05450020AE1E01200FA
:101D160065C000F066C001F074EC03F0005201E10A
:101D26002BD170C000F071C001F074EC03F000C05C
:101D360069F006D100016951960A03E1020E6F6F40
:101D4600606B1AD169516D1904E06951320A01E0DC
:101D560005D0030E6F6F6951601B02D0010E6F6FC5
:101D66000BD16E5309E0400E6915016E0150000A51
:101D760003E1010E6F6F00D169AF13D0040E6F6FD0
:101D860069C05FF06951601B030E6915016E01C0E1
:101D96006AF00150000A02E1050E6F6F010E6B6FCB
:101DA6000CD0050E02010A25E16E000E0B21E26E33
:101DB600FF0EE66E010E00016F6FDED06951A90AB3
:101DC6000DE1050E02010A25E16E000E0B21E26E01
:101DD600FF0EE66E010E00016F6FCED06B516A5D8D
:101DE600006E016A000E015A0050011013E06B05E7
:101DF600006E016A000E015A005002010A25E16ECA
:101E060001500B21E26E69C0E6FF00016951601BBB
:101E16006B2B13D06B05006E016A000E015A005041
:101E260002010A25E16E01500B21E26E69C0E6FF50
:101E3600050E00016F6F6951601B9ED0601D016E1B
:101E460001C060F00150960A04E06051A90A01E061
:101E560001D0602B6051691903E1060E6F6F0CD03B
:101E6600050E02010A25E16E000E0B21E26EFF0E41
:101E7600E66E010E00016F6F7FD06951A90A43E13A
:101E8600010E6F6F040E02010A25E16E000E0B2192
:101E9600E26EFF0EE66E030E0A25E16E000E0B21C2
:101EA600E26E6AC0E6FF010E00016B6F6B516A5D60
:101EB60029E36BC001F0020E006E015004E000360B
:101EC6000090FF0FFBD75F50001619E06B05006E00
:101ED600016A000E015A005002010A25026E0150E5
:101EE6000B21036E02C0E9FF03C0EAFF010EEE18E4
:101EF600006E02C0E1FF03C0E2FF00C0E6FF000182
:101F06006B2BD4D70CD0050E02010A25E16E000E0C
:101F16000B21E26EFF0EE66E010E00016F6F2CD0F4
:101F2600050E02010A25E16E000E0B21E26EFF0E80
:101F3600E66E010E00016F6F1FD0010E6F6F1CD091
:101F460000016F51010AD8B4F5D66F51020AD8B410
:101F5600F9D66F51030AD8B404D76F51040AD8B41E
:101F66002DD76F51050AD8B469D76F51060A85E097
:0A1F76006F51070AD5E0E1D7120011
:101F800010D025A002D0010E4E6E58EC07F015D0EF
:101F9000E0EC0AF012D0E5EC0AF00FD0C7EC0BF041
:101FA0000CD04E50000AEDE04E50010AF1E04E50C8
:0C1FB000020AF1E04E50030AF1E01200BA
:101FBC0001012F6B306B83BA02D02F8101D02F918E
:101FCC0080BE02D02F8301D02F9383B802D02F85EF
:101FDC0001D02F95CED02F51000A0DE02150000AD0
:101FEC000AE12FC130F1010E216E640E226E010E3A
:101FFC00246E2FC138F0CFD02150000A08E12F51A8
:10200C00000A05E1306B386A010E216E246A2150FA
:10201C00000A0EE12F5138180BE12250000A08E19A
:10202C002FC130F1020E246E190E226E0A0E396E7B
:10203C002150000A0CE12F51381809E02F51000AE9
:10204C0006E02FC130F12FC138F0010E216EA3D064
:10205C002F5138180BE12250000A08E139500008C2
:10206C0005E22FC130F1190E226E39062F513818A6
:10207C000EE12250000A0BE13950000A08E12FC191
:10208C0030F10F0E226E0A0E396E030E246E2F5194
:10209C0038180DE02F51000A0AE02FC130F12FC182
:1020AC0038F0010E216E640E226E010E246E2F513B
:1020BC00000A05E1306B386A010E216E246A6BD080
:1020CC002F5138180BE12250000A08E13950000852
:1020DC0005E22FC130F10F0E226E39062F51381840
:1020EC000CE12250000A09E13950000A06E12FC127
:1020FC0030F1080E226E040E246E2F5138180DE0AC
:10210C002F51000A0AE02FC130F12FC138F0010E17
:10211C00216E640E226E010E246E2F51000A05E111
:10212C00306B386A010E216E246A35D02F51381865
:10213C0007E12250000A04E12FC130F1080E226E93
:10214C002F5138180DE02F51000A0AE02FC130F141
:10215C002FC138F0010E216E640E226E010E246E1A
:10216C002F51000A05E1306B386A010E216E246A8A
:10217C0012D02450000AD8B42ED72450010AD8B457
:10218C003BD72450020AD8B463D72450030A98E0F2
:0C219C002450040ACBE030C100F0120017
:1021A800305272E030C05EF0315237E0020E010169
:1021B800346F010E356F3E0E366FFEEC09F0020EDD
:1021C8000101346F020E356F3E0E366FFEEC09F0DA
:1021D800020E0101346F030E356F3E0E366FFEECB2
:1021E80009F0020E0101346F100E356F3C0E366F88
:1021F800FEEC09F0020E0101346F0F0E356F3C0E34
:10220800366FFEEC09F0020E0101346F0E0E356FC9
:102218003C0E366FFEEC09F036D0020E0101346F29
:10222800010E356F200E366FFEEC09F0020E01012B
:10223800346F020E356F200E366FFEEC09F0020E79
:102248000101346F030E356F200E366FFEEC09F076
:10225800020E0101346F100E356F200E366FFEEC42
:1022680009F0020E0101346F0F0E356F200E366F24
:10227800FEEC09F0020E0101346F0E0E356F200ED0
:10228800366FFEEC09F03AD05E5236E0020E0101DC
:10229800346F010E356F200E366FFEEC09F0020E1A
:1022A8000101346F020E356F200E366FFEEC09F017
:1022B800020E0101346F030E356F200E366FFEECEF
:1022C80009F0020E0101346F100E356F200E366FC3
:1022D800FEEC09F0020E0101346F0F0E356F200E6F
:1022E800366FFEEC09F0020E0101346F0E0E356FE9
:0E22F800200E366FFEEC09F031C05EF01200D1
:102306000101316B316B0A0E315DD8B090D02FC10F
:1023160032F130C133F131C100F0000E016E070E0B
:10232600046E000E056EAEEC01F0325100263351FC
:102336000122050E0024E96E000E0120EA6EEE5021
:10234600000A73E12FC132F130C133F131C100F01F
:10235600000E016E070E046E000E056EAEEC01F067
:102366003251002633510122010E0024E96E000E7F
:102376000120EA6EEECF05F0EECF06F0EECF07F0C5
:10238600EECF08F0460E2F25D96E000E3021DA6EFC
:10239600D9CFE9FFDACFEAFFEECF01F0EECF02F0B8
:1023A600EECF03F0EECF04F00850041808E1075012
:1023B600031805E10650021802E10550011835E13F
:1023C6002FC132F130C133F131C100F0000E016E80
:1023D600070E046E000E056EAEEC01F032510026BB
:1023E60033510122060E0024E96E000E0120EA6E2A
:1023F600EE50000A1AE12FC132F130C133F131C17A
:1024060000F0000E016E070E046E000E056EAEECB7
:1024160001F03251002633510122060E0024E16EEE
:10242600000E0120E26E010EE66E312B6CD7120013
:1024360012D04CEC0BF021D083EC0BF01ED0FBEC51
:102446000AF01BD03CEC0DF018D059EC0CF015D06E
:1024560090EC08F012D02B50000AEBE02B50010A4A
:10246600EBE02B50020AEBE02B50030AEBE02B507B
:0C247600040AEBE02B50050AEBE012001A
:10248200460E01012F25E96E000E3021EA6EEECFD5
:1024920001F0EECF02F0EECF03F0EECF04F00450E5
:1024A200FF0A08E10350FF0A05E10250FF0A02E1B8
:1024B2000150FF0A24E00101460E2F25046E000E92
:1024C2003021056E04C0E9FF05C0EAFF010EEE24CB
:1024D200006E000EEE20016E000EEE20026E000E67
:1024E200EE20036E04C0E1FF05C0E2FF00C0E6FF7C
:1024F20001C0E6FF02C0E6FF03C0E6FF0BD0010108
:10250200460E2F25E16E000E3021E26EE66AE66A83
:06251200E66AE66A120011
:10251800C5EC13F0D6EC0DF0010E0101F86F010EB9
:10252800F96F230EF66E270EF76E000EF86E0D0E7D
:10253800E16E010EE26E110E006E010E016E5AEC94
:1025480001F00D0EFA6F010EFB6F62EC01F0020E46
:102558000101F86F010EF96F340EF66E270EF76E53
:10256800000EF86E1E0EE16E010EE26E110E006E88
:10257800010E016E5AEC01F01E0EFA6F010EFB6F90
:1025880062EC01F01F5209E0CDEC0DF0205000087C
:1025980002E2200601D0829A1F6A1D521EE01E50D8
:1025A800000802E21E0601D0809C3152010ED8A418
:1025B800000E316EF5DD010E2626000E2722282298
:1025C80029227C0E01012F6F000E306F56DF7C0E22
:1025D8002F6F000E306F93DE1D6AECDC00C025F013
:1025E8000050000A04E00A0E1E6E030E206E2A50E8
:1025F800000A01E1C1DC1BDF44EC0EF01E500008AC
:0826080001E2808CBFD7FFD76F
:10278A0010EE1DF0370E006E010E016E970EF66EFA
:0E279A00260EF76E000EF86E5AEC01F01200DB
:1026100020202020202020202020202020202020BA
:0126200000B9
:1026210031204F70656E6E696E672054696D65204B
:0126310000A8
:102632003220436C6F73696E672054696D65202088
:012642000097
:102643003320496E76616C69642054696D6520207E
:012653000086
:1026540034204175746F636C6F73652054696D65C4
:012664000075
:1026650035204E65742041646472657373202000C3
:10267500362053617665204368616E676573202057
:012685000054
:102686003720446973636172642026204578697433
:012696000043
:012697000042
:012698000A37
:012699000040
:01269A00053A
:01269B00003E
:01269C00003D
:01269D00003C
:01269E00003B
:01269F00003A
:0426A0000000000036
:0126A4000035
:0126A5000034
:0426A6000000000030
:0126AA00002F
:0126AB00002E
:0426AC00000000002A
:0126B0000029
:0126B1000028
:0126B2000027
:0126B3000026
:0126B4000A1B
:0126B5000A1A
:0126B6000023
:1026B7002020202020202020202020202020202013
:0126C7000012
:0126C8000011
:0126C900010F
:0226CA003D00D1
:0126CC0014F9
:0126CD00000C
:1026CE0020202020496E76616C6964202020202015
:0126DE0000FB
:1026DF00202020204F70656E6E696E6720202020AD
:0126EF0000EA
:1026F000202020204F70656E6E696E67202020209C
:0127000000D8
:1027010020202020436C6F73696E672020202020D9
:0127110000C7
:10271200202020204F70656E6E696E672020202079
:0127220000B6
:102723002020202020537461727421202020202037
:0127330000A5
:102734002020202020202020202020202020202095
:012744000094
:102745002020202020436C6F7365642020202020EA
:012755000083
:10275600202020204F70656E6E696E672020202035
:012766000072
:1027670020202020496E76616C696420202020207B
:012777000061
:1027780020202020204F70656E65642020202020B6
:012788000050
:020000040030CA
:0E0000001D187F7CFF8991FF0FC00FE00F409D
:0200000400F00A
:0200000400F00A
:10000000141402280000000000000000000000009E
:10001000FFFFFFFFFFFFFFFFFFFFFFFFFFFFFFFFF0
:10002000FFFFFFFFFFFFFFFFFFFFFFFFFFFFFFFFE0
:10003000FFFFFFFFFFFFFFFFFFFFFFFFFFFFFFFFD0
:10004000FFFFFFFFFFFFFFFFFFFFFFFFFFFFFFFFC0
:00000001FF
