:0400000090EF12F07B
:1000080000C018F001C017F002C016F003C015F0C8
:10001800E1CF1BF0E2CF1CF0E9CF19F0EACF1AF0DC
:10002800F2A410D0F2AA0ED0010E206E372A190EB3
:10003800375C03E3010E1D6E376A630ED76EBF0E81
:10004800D66EF2949DAA09D09EAA07D0540E02013A
:100058000B6F000E0C6F8EEC0EF018C000F017C07E
:1000680001F016C002F015C003F019C0E9FF1AC06C
:0C007800EAFF1BC0E1FF1CC0E2FF11000A
:100084003A0E0C6E230E0D6E0D2EFED70C2EFCD7E1
:02009400120058
:0A009600850E0D6E0D2EFED7120030
:0C00A000020E0D6E0D2EFED700001200A7
:1000AC00086A080E0C6E003408360450085ED8B08E
:0E00BC0002D00826D89000360C2EF5D7120080
:1000CA0002010ABF02D0819601D081860ABD02D000
:1000DA00819401D081840ABB02D0819201D08182AD
:1000EA000AB902D0819001D0818000016CB102D09E
:1000FA00818A01D0819A8188CEDF819802010AB76C
:10010A0002D0819601D081860AB502D0819401D0AD
:10011A0081840AB302D0819201D081820AB102D0CD
:10012A00819001D0818000016CB102D0818A01D016
:10013A00819A8188B0DF81986CA102D09EDF01D0BC
:04014A00A5DF12001B
:10014E0006C204F007C205F004C202F005C203F0B5
:10015E0008C200F009C201F0010E0201085F000E94
:10016E00095B005001100FE004C0E9FF05C0EAFF73
:10017E0002C0E1FF03C0E2FFEECFE6FF024A032A10
:10018E00044A052AE5D704C200F005C201F01200A8
:0E019E0000016C9104C20AF291DF6C81120024
:1001AC000201076B030E075D0AE207510525E16E9C
:1001BC00000E0621E26E200EE66E072BF3D70751D8
:1001CC000525E16E000E0621E26EE66A070707516F
:1001DC000525086F000E0621096F0A0E046E04C275
:1001EC0000F05EDF08C000F0300E002608C2E1FF10
:1001FC0009C2E2FF00C0E6FF0A0E046E04C200F062
:10020C004FDF00C004F20050000A01E102D00707E2
:04021C00DED7120017
:10022000F9C104F202010433049FFAC105F2FBC1D3
:1002300006F2BCDF010E0101F915016E0150010A41
:100240001CE1030EFA250201046F000E0101FB21DF
:100250000201056F2E0E0101FC6F350EFD6F730E4E
:10026000FE6FFF6BFC0E0201066F010E076F040E9E
:10027000086F000E096F6BDF1AD0030E0101FA251B
:100280000201046F000E0101FB210201056F2E0E19
:10029000006F300E016F730E026F036B000E066F5E
:1002A000020E076F040E086F000E096F50DF120078
:1002B0000900F5CFE6FF0006FBE10106F9E11200B7
:1002C00010D0800E0101F96F1AD0C00EF96F17D04F
:1002D000940EF96F14D0D40EF96F11D0800EF96F0F
:1002E0000ED00101F951010AECE0F951020AEDE0EA
:1002F000F951030AEDE0F951040AEDE0EFD7FA05F0
:10030000006EF951002600C0F9F100C00AF2DDDEEE
:100310006C910101FD6BFD51FB25E96E000EFC2186
:10032000EA6EEE520CE0FD51FB25E96E000EFC2159
:10033000EA6EEECF04F233DF0101FD2BECD70001B2
:040340006C811200BA
:100344007F9CFAC175FFF9C174FF7F9E7F8073CFD4
:0403540000F01200A3
:100358000B6A0A6A096A00500402F4CF09F0F3CF65
:1003680008F001500502F4CF0BF0F3CF0AF000506B
:100378000502F3500926F4500A22E86A0B220150BC
:100388000402F3500926F4500A22E86A0B2208C036
:1003980000F009C001F00AC002F00BC003F012001F
:1003A80094928292010E00016F6F6E6BF9C16DF02D
:1003B8000101F951960A04E0F951A90A01E006D0B1
:0E03C800010EF91900016D6FFF0E6E6F12002D
:0C03D600BAB201D0FDD7F9C179FF1200C6
:0E03E200ACB202D00000FCD7F9C1ADFF120092
:1003F000F9C1C9FFC7B002D00000FCD7C9CF00F0D7
:020400001200E8
:100402007FA202D00000FCD77F9CFAC175FFF9C120
:1004120074FFFBC173FF7F9E7F84F2CF00F0F29ED8
:10042200550E7E6EAA0E7E6E7F8200BE02D0F29EB6
:0804320001D0F28E7F9412004C
:10043A00086A096A100E0C6E01340836093604502F
:10044A00085E0550D8A0053C095ED8B007D0045014
:10045A0008260550D8B0053C0926D8900036013642
:06046A000C2EEAD712007F
:10047000AECF01F0ABA202D0AB98AB8801C000F0C8
:02048000120068
:0A048200000E9EBA010E006E12007B
:0A048C00000EBAB2010E006E12005D
:0A049600000EACB2010E006E120061
:1004A0007ACF01F0A6A202D0A698A68801C000F0DB
:0204B000120038
:0A04B200000EA4BA010E006E120045
:1004BC000101F96BFA6B40DF00C03AF0010EF96FE5
:1004CC00000EFA6F39DF00C03BF0020EF96F000E20
:1004DC00FA6F32DF00C04FF0030EF96F000EFA6FA7
:1004EC002BDF00C052F0040EF96F000EFA6F24DF00
:0604FC0000C053F01200E5
:1005020001016A6B6B6B6A6B0A0E6A5D6AE267C114
:100512006CF168C16DF16AC100F0000E016E070E48
:10052200046E000E056E17DF6C5100266D5101221C
:10053200050E0024E96E000E0120EA6EEE50000A5C
:100542004EE167C16CF168C16DF16AC100F0000E45
:10055200016E070E046E000E056EFDDE6C51002664
:100562006D510122060E0024E96E000E0120EA6E92
:10057200EE50010A34E167C16CF168C16DF16AC1E4
:1005820000F0000E016E070E046E000E056EE3DE33
:1005920000506C25E96E01506D21EA6EEECF01F03C
:1005A200015069191CE167C16CF168C16DF16AC142
:1005B20000F0000E016E070E046E000E056ECBDE1B
:1005C2006C5100266D510122050E0024E16E000ED1
:1005D2000120E26E010EE66E010E6B6F02D06A2BF5
:0805E20093D76BC100F0120079
:1005EA000101F96BFA6B3AC0FBF106DF010E01015A
:1005FA00F96F000EFA6F3BC0FBF1FEDE020E01013D
:10060A00F96F000EFA6F4FC0FBF1F6DE030E01011F
:10061A00F96F000EFA6F52C0FBF1EEDE040E010113
:10062A00F96F000EFA6F53C0FBF1E6DE53C0F9F121
:04063A00B6DE120016
:10063E0001016A6B0A0E6A5D4DE267C16BF168C11A
:10064E006CF16AC100F0000E016E070E046E000E12
:10065E00056E7BDE6B5100266C510122050E0024C7
:10066E00E96E000E0120EA6EEE50000A31E167C11C
:10067E006BF168C16CF16AC100F0000E016E070EDD
:10068E00046E000E056E61DE00506B25E96E0150A2
:10069E006C21EA6EEECF01F00150691919E167C1C4
:1006AE006BF168C16CF16AC100F0000E016E070EAD
:1006BE00046E000E056E49DE6B5100266C51012250
:1006CE00050E0024E16E000E0120E26E010EE66EB4
:0606DE006A2BB0D71200E8
:1006E400F250026EF29E0500FF6A0150FE6E005049
:0806F400FD6E02BEF28E120041
:1006FC0001016B6B050E6B5D0AE26B516925E16EB6
:10070C00000E6A21E26E200EE66E6B2BF3D76B5156
:10071C006925E16E000E6A21E26EE66A6B076B5189
:10072C0069256C6F000E6A216D6F0A0E046E000E47
:10073C00056E67C100F068C101F079DE08C000F0F9
:10074C0009C001F0300E00266CC1E1FF6DC1E2FF63
:10075C0000C0E6FF0A0E046E000E056E67C100F0C5
:10076C0068C101F064DE00C067F101C068F1000EE1
:10077C00011802E1000E001801E102D06B07CFD77F
:02078C00120059
:10078E000B6A0A6A096A086A0E6A0334083604504C
:10079E00085E0550D8A0053C095E0650D8A0063C60
:1007AE000A5E0750D8A0073C0B5EE86AD8A0010E7F
:1007BE000E5E0336070E0C6E0334083609360A3603
:1007CE000B360E36045003A012D0085E0550D8A08A
:1007DE00053C095E0650D8A0063C0A5E0750D8A01C
:1007EE00073C0B5EE86AD8A0010E0E5E11D00826FB
:1007FE000550D8B0053C09260650D8B0063C0A264E
:10080E000750D8B0073C0B26E86AD8B0010E0E266A
:10081E0003360C2ED1D70234083609360A360B367B
:10082E000E36045003A012D0085E0550D8A0053C29
:10083E00095E0650D8A0063C0A5E0750D8A0073CB9
:10084E000B5EE86AD8A0010E0E5E11D00826055088
:10085E00D8B0053C09260650D8B0063C0A260750EB
:10086E00D8B0073C0B26E86AD8B0010E0E26023629
:10087E00070E0C6E0234083609360A360B360E3663
:10088E00045002A012D0085E0550D8A0053C095EA7
:10089E000650D8A0063C0A5E0750D8A0073C0B5E57
:1008AE00E86AD8A0010E0E5E11D008260550D8B009
:1008BE00053C09260650D8B0063C0A260750D8B08B
:1008CE00073C0B26E86AD8B0010E0E2602360C2E17
:1008DE00D1D70134083609360A360B360E36045097
:1008EE0002A012D0085E0550D8A0053C095E065045
:1008FE00D8A0063C0A5E0750D8A0073C0B5EE86AFB
:10090E00D8A0010E0E5E11D008260550D8B0053CB9
:10091E0009260650D8B0063C0A260750D8B0073C28
:10092E000B26E86AD8B0010E0E260136070E0C6EA5
:10093E000134083609360A360B360E36045001A03D
:10094E0012D0085E0550D8A0053C095E0650D8A00E
:10095E00063C0A5E0750D8A0073C0B5EE86AD8A09A
:10096E00010E0E5E11D008260550D8B0053C0926A2
:10097E000650D8B0063C0A260750D8B0073C0B26C6
:10098E00E86AD8B0010E0E2601360C2ED1D70034EF
:10099E00083609360A360B360E36045001A012D030
:1009AE00085E0550D8A0053C095E0650D8A0063C4E
:1009BE000A5E0750D8A0073C0B5EE86AD8A0010E6D
:1009CE000E5E11D008260550D8B0053C09260650FB
:1009DE00D8B0063C0A260750D8B0073C0B26E86A6A
:1009EE00D8B0010E0E260036070E0C6E00340836F7
:1009FE0009360A360B360E36045000A012D0085EA9
:100A0E000550D8A0053C095E0650D8A0063C0A5EEB
:100A1E000750D8A0073C0B5EE86AD8A0010E0E5E08
:100A2E0011D008260550D8B0053C09260650D8B07E
:100A3E00063C0A260750D8B0073C0B26E86AD8B009
:100A4E00010E0E2600360C2ED1D700B00ED004505B
:100A5E0008260550D8B0053C09260650D8B0063CED
:0C0A6E000A260750D8B0073C0B261200E7
:100A7A0001016F6B706B716B726B460E6725E96EC5
:100A8A00000E6821EA6E6951EE246F6F6A51EE20FA
:100A9A00706F6B51EE20716F6C51EE20726F6E6B3E
:100AAA000A0E6E5DD8B083D067C173F168C174F164
:100ABA006EC100F0000E016E070E046E000E056E88
:100ACA0046DC7351002674510122050E0024E96E9A
:100ADA00000E0120EA6EEE50010A67E167C173F168
:100AEA0068C174F16EC100F0000E016E070E046E4B
:100AFA00000E056E2CDC00507325E16E0150742146
:100B0A00E26E6DC1E6FF67C173F168C174F16EC12F
:100B1A0000F0000E016E070E046E000E056E17DC63
:100B2A007351002674510122010E0024E16E000E59
:100B3A000120E26E6FC1E6FF70C1E6FF71C1E6FFF8
:100B4A0072C1E6FF67C173F168C174F16EC100F04A
:100B5A00000E016E070E046E000E056EACEC01F07D
:100B6A007351002674510122050E0024E16E000E15
:100B7A000120E26EE66A67C173F168C174F16EC161
:100B8A0000F0000E016E070E046E000E056EACEC4E
:100B9A0001F07351002674510122060E0024E16E01
:100BAA00000E0120E26EE66A02D06E2B79D712009F
:100BBA00EF0E0201046F010E056F180EF66E260E77
:100BCA00F76E000EF86E670EE16E010EE26E110E00
:100BDA00006E010E016E58EC01F0670E066F010EF1
:100BEA00076F0A0E086F000E096FA7EC00F0010EDE
:100BFA000A6F65EC00F03ED1010E0101F96F010E9A
:100C0A00FA6F290EF66E260EF76E000EF86E780E43
:100C1A00E16E010EE26E110E006E010E016E58ECCD
:100C2A0001F0780EFB6F010EFC6F60EC01F03AC028
:100C3A00F9F1EF0E0101FA6F010EFB6F10EC01F0F2
:100C4A00020E0101F96F050EFA6FEF0EFB6F010E2E
:100C5A00FC6F60EC01F028D1010E0101F96F010E61
:100C6A00FA6F3A0EF66E260EF76E000EF86E890EC1
:100C7A00E16E010EE26E110E006E010E016E58EC6D
:100C8A0001F0890EFB6F010EFC6F60EC01F03BC0B6
:100C9A00F9F1EF0E0101FA6F010EFB6F10EC01F092
:100CAA00020E0101F96F050EFA6FEF0EFB6F010ECE
:100CBA00FC6F60EC01F0F8D0010E0101F96F010E32
:100CCA00FA6F4B0EF66E260EF76E000EF86E9A0E3F
:100CDA00E16E010EE26E110E006E010E016E58EC0D
:100CEA0001F09A0EFB6F010EFC6F60EC01F04FC031
:100CFA00F9F1EF0E0101FA6F010EFB6F10EC01F032
:100D0A00020E0101F96F050EFA6FEF0EFB6F010E6D
:100D1A00FC6F60EC01F0C8D0010E0101F96F010E01
:100D2A00FA6F5C0EF66E260EF76E000EF86EAB0EBC
:100D3A00E16E010EE26E110E006E010E016E58ECAC
:100D4A0001F0AB0EFB6F010EFC6F60EC01F052C0BC
:100D5A00F9F1EF0E0101FA6F010EFB6F10EC01F0D1
:100D6A00020E0101F96F050EFA6FEF0EFB6F010E0D
:100D7A00FC6F60EC01F098D0010E0101F96F010ED1
:100D8A00FA6F6D0EF66E260EF76E000EF86EBC0E3A
:100D9A00E16E010EE26E110E006E010E016E58EC4C
:100DAA0001F0BC0EFB6F010EFC6F60EC01F053C04A
:100DBA0004F2EF0E0201056F010E066FD6EC00F089
:100DCA00020E0101F96F050EFA6FEF0EFB6F010EAD
:100DDA00FC6F60EC01F068D0010E0101F96F010EA1
:100DEA00FA6F7E0EF66E260EF76E000EF86ECD0EB8
:100DFA00E16E010EE26E110E006E010E016E58ECEC
:100E0A0001F0CD0EFB6F010EFC6F60EC01F0020EDB
:100E1A000101F96F010EFA6F50C0FBF151C0FCF1EC
:100E2A0060EC01F041D0010E0101F96F010EFA6F79
:100E3A008F0EF66E260EF76E000EF86EDE0EE16E5F
:100E4A00010EE26E110E006E010E016E58EC01F0F9
:100E5A00DE0EFB6F010EFC6F60EC01F0020E010169
:100E6A00F96F010EFA6F50C0FBF151C0FCF160EC52
:100E7A0001F01AD03C50000AD8B4BED63C50010A40
:100E8A00D8B4EAD63C50020AD8B416D73C50030A62
:100E9A00D8B442D73C50040AD8B46ED73C50050A9D
:0A0EAA009BE03C50060ABFE0120076
:100EB40026C005F027C006F028C007F029C008F0B6
:100EC4002C50055E2D50065A2E50075A2F50085AA2
:100ED40005C001F006C002F007C003F008C004F02A
:100EE4000432033202320132049E01C034F102C0E2
:100EF40035F103C036F104C037F104500001641920
:100F040008E10350631905E10250621902E101503E
:100F14006119D8B4D8D034C161F035C162F036C19A
:100F240063F037C164F03C0E046E000E056E066E6D
:100F3400076E34C100F035C101F036C102F037C18B
:100F440003F023DC08C000F009C001F00AC002F07D
:100F54000BC003F000C039F13C0E046E000E056EA8
:100F6400066E076E34C100F035C101F036C102F0DF
:100F740037C103F00ADC00C034F101C035F102C00E
:100F840036F103C037F13C0E046E000E056E066E9A
:100F9400076EC7EC03F008C000F009C001F00AC0F6
:100FA40002F00BC003F000C038F13C0E046E000EDA
:100FB400056E066E076E34C100F035C101F036C10E
:100FC40002F037C103F0C7EC03F000C067F101C0C1
:100FD40068F13C0E0101696F010E6A6F7EEC03F04B
:100FE40038C104F2420E0201056F010E066FD6EC01
:100FF40000F039C104F2460E056F010E066FD6ECFF
:1010040000F03A0E046F010E056F4C0E01014B6F98
:10101400430E4C6F3A0E4D6F4E6B4B0E0201066F32
:10102400010E076F030E086F000E096FA7EC00F0A6
:10103400410E046F010E056F480E01014F6F200E23
:10104400506F516B4F0E0201066F010E076F020EB7
:10105400086F000E096FA7EC00F0450E046F010E37
:10106400056F4D0E0101526F200E536F546B520EDB
:101074000201066F010E076F020E086F000E096F62
:10108400A7EC00F0490E046F010E056F530E010129
:10109400556F200E566F576B550E0201066F010EE9
:1010A400076F020E086F000E096FA7EC00F0010134
:1010B4004A6B010EF96F010EFA6F3A0EFB6F010EC7
:0810C400FC6F60EC01F012006A
:1010CC00E20E0001746F030E756FF90E766F010E50
:1010DC00776F700E706F040E716F000E726F000ED2
:1010EC00736F820E656F040E666F000E676F000ED5
:1010FC00686F960E786F040E796F000E7A6F000E83
:10110C007B6FAC8A900EAB6E948E949C9EAA03D08F
:08111C00AECF00F0FBD712007A
:101124007C0E0101676F000E686F360E696F81ECEB
:1011340002F0005223E0020E0C6F2A50000A1DE157
:101144003D50000A1AE1020EF96F010EFA6F4E0EBD
:10115400F66E270EF76E000EF86E340EE16E010E79
:10116400E26E110E006E010E016E58EC01F0340EA9
:0E117400FB6F010EFC6F60EC01F02B6A1200A5
:101182006DC03AF100016E5304E0010E6D190101C8
:101192003A6F010182823605396F76C0E1FF77C06E
:1011A200E2FF960EE66E74C000F075C001F072ECBC
:1011B20003F001013A51960A04E03A51A90A01E00A
:1011C20002D03A71368D76C0E1FF77C0E2FF3AC1B4
:1011D200E6FF74C000F075C001F072EC03F001018B
:1011E200376B3751395D32E337513425E96E000EE2
:1011F2003521EA6EEECF01F001C03BF10150960AB3
:1012020004E03B51A90A01E01FD037513425016E99
:10121200000E3521026E01C0E9FF02C0EAFF010E95
:10122200EE18006E01C0E1FF02C0E2FF00C0E6FF5F
:1012320037C101F0040E006E015004E00036009048
:10124200FF0FFBD700503613372BCBD776C0E1FF09
:1012520077C0E2FF36C1E6FF74C000F075C001F04E
:1012620072EC03F001013A513619386F376B37517E
:10127200395D1FE337513425006E000E3521016EB2
:1012820000C0D9FF01C0DAFFDE50381B76C0E1FF93
:1012920077C0E2FF00C0E9FF01C0EAFFEECFE6FF40
:1012A20074C000F075C001F072EC03F00101372B3D
:1012B200DED7381D016E01C038F10150960A04E0F4
:1012C2003851A90A01E001D0382B76C0E1FF77C07E
:1012D200E2FF38C1E6FF74C000F075C001F072ECA5
:1012E20003F076C0E1FF77C0E2FFA90EE66E74C09C
:1012F20000F075C001F072EC03F078C000F079C024
:1013020001F072EC03F00050000A01E1F6D782927C
:021312001200C7
:101314000101366B0A0E365D66E234C137F135C120
:1013240038F136C100F0000E016E070E046E000E97
:10133400056EACEC01F000503725E16E0150382108
:10134400E26EE66A34C137F135C138F136C100F0D6
:10135400000E016E070E046E000E056EACEC01F07B
:101364003751002638510122010E0024E16E000E8F
:101374000120E26EE66AE66AE66AE66A34C137F19B
:1013840035C138F136C100F0000E016E070E046E4F
:10139400000E056EACEC01F03751002638510122E5
:1013A400050E0024E16E000E0120E26E010EE66ED1
:1013B40034C137F135C138F136C100F0000E016E89
:1013C400070E046E000E056EACEC01F037510026DA
:1013D40038510122060E0024E16E000E0120E26E57
:1013E400E66A362B97D7460E3425E16E000E35217A
:0C13F400E26EE66AE66AE66AE66A12004B
:1014000010D0800E0101346F1AD0C00E346F17D087
:10141000940E346F14D0D40E346F11D0800E346F0C
:101420000ED001013451010AECE03451020AEDE022
:101430003451030AEDE03451040AEDE0EFD73505ED
:10144000006E3451002600C034F100016C8100C0F0
:101450000AF265EC00F06C9136C10AF265EC00F01E
:041460006C81120089
:10146400D60E0001746F030E756FF90E766F010EC0
:10147400776FA00E706F040E716F000E726F000E06
:10148400736FB20E656F040E666F000E676F000E09
:10149400686F8C0E786F040E796F000E7A6F000EF1
:1014A4007B6FBA8A900EA66E958E959CA4AA03D0E3
:0814B4007ACF00F0FBD7120013
:1014BC0034C170F035C171F036C172F037C173F0C0
:1014CC0038C174F039C175F03AC176F03BC177F090
:1014DC003CC165F03DC166F03EC167F03FC168F0AC
:1014EC0040C178F041C179F042C17AF043C17BF040
:0214FC001200DC
:1014FE009398939A93909392939493968198819ABA
:10150E00819681948192819042EC00F042EC00F041
:10151E0042EC00F081828180818850EC00F081984D
:10152E0042EC00F0818850EC00F0819842EC00F023
:10153E00818850EC00F0819842EC00F08190818817
:10154E0050EC00F0819842EC00F0818850EC00F0F5
:10155E00819881928186818850EC00F0819842ECCE
:10156E0000F081968180818850EC00F08198819006
:10157E00818850EC00F0819842EC00F0818850ECAC
:10158E0000F081988180818850EC00F0819842ECC7
:10159E0000F08190818850EC00F0819881868184E2
:1015AE0081828180818850EC00F0819842EC00F0BD
:0615BE0000016C81120027
:0A15C400DDEC05F0020E3D6E120092
:1015CE00306A25A409D03C50000802E23C0602D045
:1015DE00060E3C6E010E3D6E25A208D0060E3C5C3A
:1015EE0002E23C2A01D03C6A010E3D6E25A002D0DB
:0615FE00030E3D6E120019
:101604007C0E0101676F000E686F330E696F81EC09
:1016140002F0005245E00C6B2A50000A1DE13D50D7
:10162400000A1AE1020EF96F010EFA6F700EF66EDF
:10163400270EF76E000EF86E340EE16E010EE26EA8
:10164400110E006E010E016E58EC01F0340EFB6FAA
:10165400010EFC6F60EC01F0030E2B6E7C0E010199
:10166400676F000E686F4FC069F1000E6A6F6937CB
:101674006A376991000E6ABFFF0E6B6F6C6F340E90
:101684006D6F3DEC05F04F502624326E000E27207E
:10169400336E000E2820346E000E2920356E366A13
:0216A400120032
:1016A600365234E07C0E0101676F000E686F3AC057
:1016B60069F1000E6A6F6B6F6C6F320E6D6F3DECE9
:1016C60005F0030E0C6F2A50000A1DE13D50000A7A
:1016D6001AE1020EF96F010EFA6F5F0EF66E270E13
:1016E600F76E000EF86E340EE16E010EE26E110E0C
:1016F600006E010E016E58EC01F0340EFB6F010E08
:0E170600FC6F60EC01F0010E2B6E366A1200D3
:101714007C0E0101676F000E686F320E696F81ECF9
:1017240002F0005238E0010E0C6F2A50000A1DE14D
:101734003D50000A1AE1020EF96F010EFA6F810E94
:10174400F66E270EF76E000EF86E340EE16E010E83
:10175400E26E110E006E010E016E58EC01F0340EB3
:10176400FB6F010EFC6F60EC01F0020E2B6E7C0E21
:101774000101676F000E686F4F50525C696F6A6BAE
:10178400000E6A5B000E6ABFFF0E6B6F6C6F330E48
:081794006D6F3DEC05F0120041
:10179C00010E306E7BD025A206D0FF0E3A5C03E220
:1017AC003A2ADDEC05F025A406D03A50000803E2F5
:1017BC003A06DDEC05F025A002D0010E3D6E7BD083
:1017CC0025A206D0FF0E3B5C03E23B2ADDEC05F0C4
:1017DC0025A406D03B50000803E23B06DDEC05F0E7
:1017EC0025A002D0010E3D6E66D025A206D0FF0EBC
:1017FC004F5C03E24F2ADDEC05F025A406D04F50D8
:10180C00000803E24F06DDEC05F025A002D0010E26
:10181C003D6E51D025A206D0FF0E525C03E2522A37
:10182C00DDEC05F025A406D05250000803E2520668
:10183C00DDEC05F025A002D0010E3D6E3CD025A2BA
:10184C0006D0FF0E535C03E2532ADDEC05F025A411
:10185C0006D05350000803E25306DDEC05F025A03A
:10186C0002D0010E3D6E27D025A001D03D6A306A12
:10187C00F5EC02F03D6A140E316E1DD025A001D09E
:10188C003D6A306A5EEC02F03D6A15D03C50000AAD
:10189C0082E03C50010A94E03C50020AA6E03C5025
:1018AC00030AB8E03C50040ACAE03C50050ADCE0EC
:0818BC003C50060AE3E01200B3
:1018C4007C0E0101676F000E686F350E696F81EC45
:1018D40002F0005238E00C6B2A50000A1DE13D5022
:1018E400000A1AE1020EF96F010EFA6FD70EF66EB6
:1018F400260EF76E000EF86E340EE16E010EE26EE7
:10190400110E006E010E016E58EC01F0340EFB6FE7
:10191400010EFC6F60EC01F0050E2B6E7C0E0101D4
:10192400676F000E686F4FC069F1000E6A6F693708
:101934006A376991000E6ABFFF0E6B6F6C6F360ECB
:101944006D6F3DEC05F082B04DD07C0E676F000EDC
:10195400686F350E696F1FEC03F07C0E676F000E25
:10196400686F360E696F1FEC03F0030E0C6F2A507C
:10197400000A1DE13D50000A1AE1020EF96F010E42
:10198400FA6FE80EF66E260EF76E000EF86E450E30
:10199400E16E010EE26E110E006E010E016E58EC46
:1019A40001F0450EFB6F010EFC6F60EC01F0010EBF
:1019B4002B6E7C0E0101676F000E686F26C069F103
:1019C40027C06AF128C06BF129C06CF13250695FFD
:1019D40033506A5B34506B5B35506C5B320E6D6F09
:1019E4003DEC05F036524EE07C0E676F000E686FDA
:1019F400350E696F1FEC03F07C0E676F000E686F85
:101A0400360E696F1FEC03F0030E0C6F2A50000AA8
:101A14001DE13D50000A1AE1020EF96F010EFA6F42
:101A2400F90EF66E260EF76E000EF86E560EE16E87
:101A3400010EE26E110E006E010E016E58EC01F003
:101A4400560EFB6F010EFC6F60EC01F0010E2B6E65
:101A54007C0E0101676F000E686F26C069F127C014
:101A64006AF128C06BF129C06CF13250695F3350C0
:101A74006A5B34506B5B35506C5B320E6D6F3DECC2
:061A840005F0366A1200B5
:101A8A007C0E0101676F000E686F340E696F81EC7E
:101A9A0002F0005240E0040E0C6F2A50000A1DE1C9
:101AAA003D50000A1AE1020EF96F010EFA6F0A0E92
:101ABA00F66E270EF76E000EF86E340EE16E010E0A
:101ACA00E26E110E006E010E016E58EC01F0340E3A
:101ADA00FB6F010EFC6F60EC01F0040E2B6E7C0EA6
:101AEA000101676F000E686F4FC000F0000E016EB3
:101AFA0000360136009000503B5C696F01C06AF104
:101B0A00000E6A57000E6ABFFF0E6B6F6C6F350EC0
:101B1A006D6F3DEC05F082B043D07C0E676F000E0E
:101B2A00686F350E696F1FEC03F07C0E676F000E4D
:101B3A00686F340E696F1FEC03F0030E0C6F2A50A6
:101B4A00000A1DE13D50000A1AE1020EF96F010E6A
:101B5A00FA6F1B0EF66E270EF76E000EF86E450E24
:101B6A00E16E010EE26E110E006E010E016E58EC6E
:101B7A0001F0450EFB6F010EFC6F60EC01F0010EE7
:101B8A002B6E7C0E0101676F000E686F4FC069F102
:101B9A00000E6A6F6B6F6C6F320E6D6F3DEC05F065
:021BAA00120027
:101BAC002150000801E221062250000801E2220621
:021BBC00120015
:101BBE00600ED36E9B8C0F015D6B5C6B806A816ACD
:101BCE00826A836A846ABF0E926EC00E936E810E15
:101BDE00946EB00E956E0E0E966E810ED56E630ED1
:101BEE00D76EBF0ED66EF28EF28A82DC0C0E02011A
:101BFE000A6F65EC00F0150E0B6E4B0E0C6EBE0EE2
:101C0E000D6E0D2EFED70C2EFCD70B2EFAD7000024
:101C1E00808CCF0EAF6EAC8466EC08F0CF0E7B6E70
:101C2E00BA8419DC9E9A9D8A9F8AF28C700E0101ED
:101C3E00346F040E356F000E366F000E376FE20EE6
:101C4E00386F030E396FF90E3A6F010E3B6F820E2D
:101C5E003C6F040E3D6F000E3E6F000E3F6F960EF2
:101C6E00406F040E416F000E426F000E436F1FDC7B
:101C7E007C0E346F000E356F8AEC09F0020E0C6F7D
:0E1C8E005EEC02F053C0F9F1D4EC01F012004C
:101C9C0058523DE0586A35D026C02CF027C02DF0A4
:101CAC0028C02EF029C02FF0010E236EC80E546EE2
:101CBC000B0E0C6E620E0D6E0D2EFED70C2EFCD77D
:101CCC000000540E0101346F000E356F010E366F9B
:101CDC00C1EC08F084801BD0C80E546E0B0E0C6E39
:101CEC00620E0D6E0D2EFED70C2EFCD70000540E7E
:101CFC000101346F000E356F010E366FC1EC08F028
:101D0C0006D05450010AC8E05450020AE5E0120013
:101D1C0065C000F066C001F072EC03F0005201E106
:101D2C002BD170C000F071C001F072EC03F000C058
:101D3C0069F006D100016951960A03E1020E6F6F3A
:101D4C00606B1AD169516D1904E06951320A01E0D6
:101D5C0005D0030E6F6F6951601B02D0010E6F6FBF
:101D6C000BD16E5309E0400E6915016E0150000A4B
:101D7C0003E1010E6F6F00D169AF13D0040E6F6FCA
:101D8C0069C05FF06951601B030E6915016E01C0DB
:101D9C006AF00150000A02E1050E6F6F010E6B6FC5
:101DAC000CD0050E02010B25E16E000E0C21E26E2B
:101DBC00FF0EE66E010E00016F6FDED06951A90AAD
:101DCC000DE1050E02010B25E16E000E0C21E26EF9
:101DDC00FF0EE66E010E00016F6FCED06B516A5D87
:101DEC00006E016A000E015A0050011013E06B05E1
:101DFC00006E016A000E015A005002010B25E16EC3
:101E0C0001500C21E26E69C0E6FF00016951601BB4
:101E1C006B2B13D06B05006E016A000E015A00503B
:101E2C0002010B25E16E01500C21E26E69C0E6FF48
:101E3C00050E00016F6F6951601B9ED0601D016E15
:101E4C0001C060F00150960A04E06051A90A01E05B
:101E5C0001D0602B6051691903E1060E6F6F0CD035
:101E6C00050E02010B25E16E000E0C21E26EFF0E39
:101E7C00E66E010E00016F6F7FD06951A90A43E134
:101E8C00010E6F6F040E02010B25E16E000E0C218A
:101E9C00E26EFF0EE66E030E0B25E16E000E0C21BA
:101EAC00E26E6AC0E6FF010E00016B6F6B516A5D5A
:101EBC0029E36BC001F0020E006E015004E0003605
:101ECC000090FF0FFBD75F50001619E06B05006EFA
:101EDC00016A000E015A005002010B25026E0150DE
:101EEC000C21036E02C0E9FF03C0EAFF010EEE18DD
:101EFC00006E02C0E1FF03C0E2FF00C0E6FF00017C
:101F0C006B2BD4D70CD0050E02010B25E16E000E05
:101F1C000C21E26EFF0EE66E010E00016F6F2CD0ED
:101F2C00050E02010B25E16E000E0C21E26EFF0E78
:101F3C00E66E010E00016F6F1FD0010E6F6F1CD08B
:101F4C0000016F51010AD8B4F5D66F51020AD8B40A
:101F5C00F9D66F51030AD8B404D76F51040AD8B418
:101F6C002DD76F51050AD8B469D76F51060A85E091
:0A1F7C006F51070AD5E0E1D712000B
:101F860011D025A003D0010E3D6E3C6A5AEC07F035
:101F960015D0E2EC0AF012D0E7EC0AF00FD0CEEC46
:101FA6000BF00CD03D50000AECE03D50010AF1E088
:0E1FB6003D50020AF1E03D50030AF1E0120036
:101FC40001012F6B306B83BA02D02F8101D02F9186
:101FD40080BE02D02F8301D02F9383B802D02F85E7
:101FE40001D02F95CED02F51000A0DE02150000AC8
:101FF4000AE12FC130F1010E216E640E226E010E32
:10200400246E2FC138F0CFD02150000A08E12F519F
:10201400000A05E1306B386A010E216E246A2150F2
:10202400000A0EE12F5138180BE12250000A08E192
:102034002FC130F1020E246E190E226E0A0E396E73
:102044002150000A0CE12F51381809E02F51000AE1
:1020540006E02FC130F12FC138F0010E216EA3D05C
:102064002F5138180BE12250000A08E139500008BA
:1020740005E22FC130F1190E226E39062F5138189E
:102084000EE12250000A0BE13950000A08E12FC189
:1020940030F10F0E226E0A0E396E030E246E2F518C
:1020A40038180DE02F51000A0AE02FC130F12FC17A
:1020B40038F0010E216E640E226E010E246E2F5133
:1020C400000A05E1306B386A010E216E246A6BD078
:1020D4002F5138180BE12250000A08E1395000084A
:1020E40005E22FC130F10F0E226E39062F51381838
:1020F4000CE12250000A09E13950000A06E12FC11F
:1021040030F1080E226E040E246E2F5138180DE0A3
:102114002F51000A0AE02FC130F12FC138F0010E0F
:10212400216E640E226E010E246E2F51000A05E109
:10213400306B386A010E216E246A35D02F5138185D
:1021440007E12250000A04E12FC130F1080E226E8B
:102154002F5138180DE02F51000A0AE02FC130F139
:102164002FC138F0010E216E640E226E010E246E12
:102174002F51000A05E1306B386A010E216E246A82
:1021840012D02450000AD8B42ED72450010AD8B44F
:102194003BD72450020AD8B463D72450030A98E0EA
:0C21A4002450040ACBE030C100F012000F
:1021B000305272E030C05EF01F5237E0020E010173
:1021C000346F010E356F3E0E366F00EC0AF0020ED2
:1021D0000101346F020E356F3E0E366F00EC0AF0CF
:1021E000020E0101346F030E356F3E0E366F00ECA8
:1021F0000AF0020E0101346F100E356F3C0E366F7F
:1022000000EC0AF0020E0101346F0F0E356F3C0E28
:10221000366F00EC0AF0020E0101346F0E0E356FBE
:102220003C0E366F00EC0AF036D0020E0101346F1E
:10223000010E356F200E366F00EC0AF0020E010120
:10224000346F020E356F200E366F00EC0AF0020E6E
:102250000101346F030E356F200E366F00EC0AF06B
:10226000020E0101346F100E356F200E366F00EC38
:102270000AF0020E0101346F0F0E356F200E366F1B
:1022800000EC0AF0020E0101346F0E0E356F200EC5
:10229000366F00EC0AF03AD05E5236E0020E0101D1
:1022A000346F010E356F200E366F00EC0AF0020E0F
:1022B0000101346F020E356F200E366F00EC0AF00C
:1022C000020E0101346F030E356F200E366F00ECE5
:1022D0000AF0020E0101346F100E356F200E366FBA
:1022E00000EC0AF0020E0101346F0F0E356F200E64
:1022F000366F00EC0AF0020E0101346F0E0E356FDE
:0E230000200E366F00EC0AF01FC05EF01200D7
:10230E000101316B316B0A0E315DD8B090D02FC107
:10231E0032F130C133F131C100F0000E016E070E03
:10232E00046E000E056EACEC01F0325100263351F6
:10233E000122050E0024E96E000E0120EA6EEE5019
:10234E00000A73E12FC132F130C133F131C100F017
:10235E00000E016E070E046E000E056EACEC01F061
:10236E003251002633510122010E0024E96E000E77
:10237E000120EA6EEECF05F0EECF06F0EECF07F0BD
:10238E00EECF08F0460E2F25D96E000E3021DA6EF4
:10239E00D9CFE9FFDACFEAFFEECF01F0EECF02F0B0
:1023AE00EECF03F0EECF04F00850041808E107500A
:1023BE00031805E10650021802E10550011835E137
:1023CE002FC132F130C133F131C100F0000E016E78
:1023DE00070E046E000E056EACEC01F032510026B5
:1023EE0033510122060E0024E96E000E0120EA6E22
:1023FE00EE50000A1AE12FC132F130C133F131C172
:10240E0000F0000E016E070E046E000E056EACECB1
:10241E0001F03251002633510122060E0024E16EE6
:10242E00000E0120E26E010EE66E312B6CD712000B
:10243E0012D053EC0BF021D08AEC0BF01ED002EC34
:10244E000BF01BD045EC0DF018D062EC0CF015D053
:10245E0092EC08F012D02B50000AEBE02B50010A40
:10246E00EBE02B50020AEBE02B50030AEBE02B5073
:0C247E00040AEBE02B50050AEBE0120012
:10248A00460E01012F25E96E000E3021EA6EEECFCD
:10249A0001F0EECF02F0EECF03F0EECF04F00450DD
:1024AA00FF0A08E10350FF0A05E10250FF0A02E1B0
:1024BA000150FF0A24E00101460E2F25046E000E8A
:1024CA003021056E04C0E9FF05C0EAFF010EEE24C3
:1024DA00006E000EEE20016E000EEE20026E000E5F
:1024EA00EE20036E04C0E1FF05C0E2FF00C0E6FF74
:1024FA0001C0E6FF02C0E6FF03C0E6FF0BD0010100
:10250A00460E2F25E16E000E3021E26EE66AE66A7B
:06251A00E66AE66A120009
:10252000C9EC13F0DFEC0DF0010E0101F96F010EA3
:10253000FA6F2C0EF66E270EF76E000EF86E0D0E6B
:10254000E16E010EE26E110E006E010E016E58EC8E
:1025500001F00D0EFB6F010EFC6F60EC01F0020E3E
:102560000101F96F010EFA6F3D0EF66E270EF76E40
:10257000000EF86E1E0EE16E010EE26E110E006E80
:10258000010E016E58EC01F01E0EFB6F010EFC6F88
:1025900060EC01F0205209E0D6EC0DF0315000085B
:1025A00002E2310601D0829A206A1D521EE01E50BE
:1025B000000802E21E0601D0809C1F52010ED8A422
:1025C000000E1F6EF5DD010E2626000E27222822A2
:1025D00029227C0E01012F6F000E306F56DF7C0E1A
:1025E0002F6F000E306F93DE1D6AECDC00C025F00B
:1025F0000050000A04E0140E1E6E030E316E2A50C5
:10260000000A01E1C0DC1BDF4EEC0EF01E5000089A
:0826100001E2808CBFD7FFD767
:1027920010EE1DF0370E006E010E016EA00EF66EE9
:0E27A200260EF76E000EF86E58EC01F01200D5
:1026180020202020202020202020202020202020B2
:0126280000B1
:1026290031204F70656E6E696E672054696D652043
:0126390000A0
:10263A003220436C6F73696E672054696D65202080
:01264A00008F
:10264B003320496E76616C69642054696D65202076
:01265B00007E
:10265C0034204175746F636C6F73652054696D65BC
:01266C00006D
:10266D0035204E657420416464726573732020209B
:01267D00005C
:10267E00362053617665204368616E67657320204E
:01268E00004B
:10268F00372044697363617264202620457869742A
:01269F00003A
:0126A0000039
:0126A1000A2E
:0126A2000037
:0126A3000036
:0126A4000035
:0126A5000034
:0126A6000033
:0126A7000032
:0126A8000031
:0426A900000000002D
:0126AD00002C
:0126AE00002B
:0426AF000000000027
:0126B3000026
:0126B4000520
:0426B5000000000021
:0126B9000020
:0126BA00001F
:0126BB00001E
:0126BC00001D
:0126BD000A12
:0126BE000A11
:0126BF00001A
:0126C0000019
:1026C1002020202020202020202020202020202009
:0126D1000008
:0126D2000106
:0226D3003E00C7
:0126D50014F0
:0126D6000003
:1026D70020202020496E76616C696420202020200C
:0126E70000F2
:1026E800202020204F70656E6E696E6720202020A4
:0126F80000E1
:1026F900202020204F70656E6E696E672020202093
:0127090000CF
:10270A0020202020436C6F73696E672020202020D0
:01271A0000BE
:10271B00202020204F70656E6E696E672020202070
:01272B0000AD
:10272C00202020202053746172742120202020202E
:01273C00009C
:10273D00202020202020202020202020202020208C
:01274D00008B
:10274E002020202020436C6F7365642020202020E1
:01275E00007A
:10275F00202020204F70656E6E696E67202020202C
:01276F000069
:1027700020202020496E76616C6964202020202072
:012780000058
:1027810020202020204F70656E65642020202020AD
:012791000047
:020000040030CA
:0E0000001D187F7CFF8991FF0FC00FE00F409D
:0200000400F00A
:0200000400F00A
:10000000141402280000000000000000000000009E
:10001000FFFFFFFFFFFFFFFFFFFFFFFFFFFFFFFFF0
:10002000FFFFFFFFFFFFFFFFFFFFFFFFFFFFFFFFE0
:10003000FFFFFFFFFFFFFFFFFFFFFFFFFFFFFFFFD0
:10004000FFFFFFFFFFFFFFFFFFFFFFFFFFFFFFFFC0
:00000001FF
